:020000040800F2
:100000008080002045010008ED49000809490008EA
:10001000B5490008610B00082D6C000800000000C5
:10002000000000000000000000000000FD49000882
:10003000AD19000800000000F1490008014A00085D
:100040005F0100085F0100085F0100085F01000810
:100050005F0100085F0100085F0100085F01000800
:100060005F0100085F0100085F0100085F010008F0
:100070005F0100085F0100085F0100085F010008E0
:100080005F0100085F0100085F0100085F010008D0
:10009000A96A00085F0100085F0100085F0100080D
:1000A0005F0100085F0100085F0100085F010008B0
:1000B0005F0100085F0100085F0100085F010008A0
:1000C0005F0100085F0100085F0100085F01000890
:1000D0005F010008114D00085D4D0008B94D000892
:1000E0005F0100085F0100085F0100085F01000870
:1000F0005F0100085F0100085F0100085F01000860
:100100005F0100085F0100085F0100085F0100084F
:10011000B54C00085F0100085F0100085F0100089E
:100120005F0100085F0100085F0100085F0100082F
:10013000DFF80CD000F0C0FC004800472590000814
:10014000808000200648804706480047FEE7FEE71B
:10015000FEE7FEE7FEE7FEE7FEE7FEE7FEE7FEE777
:10016000B94A00083101000810B5431A934209D278
:100170008318881803E010F8011D03F8011D521EB2
:10018000F9D210BD40EA01039B0703D009E008C97A
:10019000121F08C0042AFAD203E011F8013B00F84C
:1001A000013B521EF9D210BDD2B201E000F8012B82
:1001B000491EFBD270470022F6E710B513460A46E7
:1001C00004461946FFF7F0FF204610BD421C10F808
:1001D000011B0029FBD1801A704730B5044600206E
:1001E000034600E05B1C934203D2E05CCD5C401B05
:1001F000F8D030BDF0B480EA0102D40F4200B2EB77
:10020000410F02D20246084611464A0042D0C30DB1
:10021000DDB2C1F3C752AD1A202D35DAC1F3160194
:1002200041F4000204B15242C5F1200602FA06F17F
:100230002A411044B3EBD05F23D0C4B1012DA0EB11
:10024000C35009DCF0BC4FF0004202EAC352DBB2FB
:1002500000F5000000F023BB400000F1807000EBCF
:10026000C350A0F1807040EAD170490009E049080C
:1002700041EAC071A0EBC35000F50000400800EB5C
:10028000C350F0BC00F002BB6142012202EB41010D
:10029000001BF6E7F0BC704781F00041AAE780F050
:1002A0000040A7E780EA010210B502F000434000D9
:1002B00022D04A001FD0010E01EB1261C0F356009C
:1002C000C2F3560240F4000042F40002A0FB0220F8
:1002D00000047F39140400D0401C50EA124001D4BD
:1002E0004000491EC2B20C0604EBD010401C40086E
:1002F000802A02D003E0002010BD20F00100002978
:1003000000DA0020184310BD30B480EA010202F088
:10031000004530F0004221F0004013D090B1C30DF1
:10032000D40DC2F31601C0F31600E41A41F4000123
:1003300040F400027D34914201D3641C00E0490086
:10034000002C02DA30BC002070474FF4000000237C
:10035000914201D3891A034340084FEA4101F7D182
:1003600051B1914202D14FF0004105E002D24FF06D
:10037000010101E06FF0010103EBC450284430BCDF
:1003800000F084BA2DE9FE4F804681EA0300C00FD9
:100390000C46009021F0004123F00045B8EB02002C
:1003A000A94105D24046214690461C460B460246CE
:1003B00023F00040104347D0270DC7F30A00C3F3D2
:1003C0000A510290401A019040286BDAC3F31300DF
:1003D00040F4801B0098924620B10023D2EB030A20
:1003E00063EB0B0B01985946C0F14002504600F0F8
:1003F0002CFA06460D4650465946019A00F034FA4A
:1004000010EB08006141002487EA115284EAE77387
:100410001A4340D0009A62B3019A012A4FEA075268
:1004200015DC001B61EB02014FF0004202EA0752AB
:10043000CDE90042001C41F5801132462B4600F008
:100440006BFA03B0BDE8F08F40462146F9E7001B88
:1004500061EB0201001C41F5801300185B4120187C
:10046000A2F5001747EB030140EAD570B6196D41BC
:1004700011E06D084FEA360645EAC0754FEA0752AB
:10048000001B61EB0201001C41F5801149084FEA95
:1004900030000019514132462B4603B0BDE8F04F01
:1004A00000F02BBA0098012240000023D0EB02029A
:1004B00063EBE073009821464FEAE074B8EB00006C
:1004C00061EB0401E9E783F000435BE781F0004161
:1004D00058E72DE9FE4F81EA030404F0004421F0BF
:1004E000004100944FF0000B23F0004350EA010458
:1004F0005ED052EA03045BD0C3F30A54C1F30A5539
:100500002C44A4F2F3340194A0FB0254C1F3130170
:1005100041F48011C3F3130343F4801301FB02443D
:1005200000FB034E840A970A44EA815447EA835742
:10053000A4FB076802958D0A05FB07854FEA932CFB
:1005400004FB0C542705029D4FEA065847EA16376C
:10055000B5EB08056EEB070C870E920E47EA811784
:1005600042EA8312A7FB0201B6EB0B0164EB000425
:100570002B0D43EA0C335E1844EB1C50DA4651460F
:10058000E7FB0201C5F313044FEA0B3343EA1453AC
:100590004FEA0432019C43EA0603A4F10C040294DE
:1005A000009CCDE900B400F0B7F903B0BDE8F08FCE
:1005B00000200146F9E72DE9F04D81EA030404F03B
:1005C000004B21F0004514464FF0000A23F0004193
:1005D00050EA050220D054EA01021DD0C5F30A57A3
:1005E0000246C5F31303C1F31300C1F30A5640F4E6
:1005F000801543F48013A7EB0608101BD64608F2BB
:10060000FD3873EB050002D308F1010801E09218F0
:100610005B41B8F1000F03DA00200146BDE8F08D20
:1006200000204FF48011064684460EE0171B73EB42
:10063000050705D3121B63EB050306434CEA010CC7
:1006400049084FEA300092185B4150EA0107EDD1AA
:1006500052EA030012D082EA040083EA050108434B
:1006600005D0101BAB4106D20122002306E0002278
:100670004FF0004302E06FF0010253101AEB060046
:100680004CEB085110EB0A0041EB0B01BDE8F04DBB
:1006900000F033B9002801DBC0F10040002901DB84
:1006A000C1F10041814201D801207047002070470C
:1006B000002801DBC0F10040002901DBC1F100414D
:1006C000814201D20120704700207047002801DBE1
:1006D000C0F10040002901DBC1F10041814201D39A
:1006E0000120704700207047002801DBC0F1004066
:1006F000002901DBC1F10041814201D9012070478D
:100700000020704730B5041E71F1000404DB4FF087
:100710000044404264EB0101141E73F1000405DB48
:100720001C464FF00043524263EB0403801A994188
:1007300001D3012030BD002030BD96230022114698
:1007400000F0ADB80EB540F2334102910021CDE981
:1007500000110A460B4600F0DFF803B000BD00F0C0
:10076000004230F000400AD0C10D01F56071C0F3C5
:10077000160042EA0151C2084007114370470020A9
:100780000146704701F0004330B421F0004150EAC7
:10079000010206D00A0DA2F56072C1F31301002A0E
:1007A00002DC30BC00207047440F44EAC104C100A1
:1007B000E01830BC00EBC25000F068B830B50B4612
:1007C000014600202022012409E021FA02F59D4281
:1007D00005D303FA02F5491B04FA02F52844151E55
:1007E000A2F10102F1DC30BD2DE9F05F05460020E9
:1007F00092469B4688460646814640241BE0284692
:1008000041464746224600F06FF953465A46C01A01
:10081000914110D311461846224600F016F82D1AC1
:1008200067EB01084F4622460120002100F00DF839
:1008300017EB00094E41201EA4F10104DFDC4846FD
:1008400031462A464346BDE8F09F202A04DB203A81
:1008500000FA02F1002070479140C2F1200320FA13
:1008600003F3194390407047202A06DBCB17203A48
:1008700041FA02F043EAE07306E041FA02F3D040A5
:10088000C2F1200291400843194670470029A8BFD1
:100890007047401C490008BF20F00100704710B4A9
:1008A000B0FA80FC00FA0CF050EA010404BF10BC5E
:1008B000704749B1CCF1200421FA04F411FA0CF18B
:1008C00018BF012121430843A3EB0C01CB1D4FEAC4
:1008D00000614FEA102042BF002010BC704700EBBF
:1008E000C35010440029A4BF10BC7047401C4900ED
:1008F00008BF20F0010010BC704710B5141E73F142
:10090000000408DA401C41F1000192185B411A43CF
:1009100001D120F0010010BD2DE9F04D92469B461B
:1009200011B1B1FA81F202E0B0FA80F220329046C1
:10093000FFF78BFF04460F4640EA0A0041EA0B012D
:1009400053465A46084313D0114653EA010019D0C2
:10095000C8F14002504600F0C7F805460E46504622
:1009600059464246FFF771FF084305D0012004E0D5
:1009700020463946BDE8F08D0020054346EAE07682
:100980002C4337430A986305E40AA0EB08000022D1
:10099000FD0A44EA47540A3002D500200146E9E73F
:1009A000010510196941DDE9084500196941BDE8F3
:1009B000F04DA2E72DE9F04D00231A461B1A8A419B
:1009C00003DB00200146BDE8F08DC1F30A52C1F3FC
:1009D000130141F480154FF0000BD10702D100182C
:1009E0006D41521E0027044640F2FF11384601EBCC
:1009F000620A3E468046024600204FF4801100F015
:100A000073F8C2197141BB1846EB0100B4EB030C3B
:100A100075EB000C04D3E41A65EB000517460E468F
:100A2000241908F101006D4180463428E3DDF919ED
:100A300046EB0600091BA84103D24FF0FF321346D4
:100A400001E0002213461BEB070046EB0A51BDE80C
:100A5000F04DFFF752BFC1F30A52C1F3130140F248
:100A6000FF3341F480119A4202DA002001467047B8
:100A700040F233439A42A2F2334202DC524200F087
:100A800033B8FFF7E2BE000030B5041E71F1000478
:100A900004DB4FF00044404264EB0101141E73F18B
:100AA000000405DB1C464FF00043524263EB040395
:100AB000994208BF904230BD1CB5094800900948D2
:100AC00001900546009C06E0E06840F0010394E8D0
:100AD000070098471034AC42F6D3FFF72DFB000017
:100AE00048EF000868EF0008202A04DB203A21FACA
:100AF00002F00021704721FA02F3D040C2F1200237
:100B0000914008431946704770B58C1810F8015B86
:100B100015F0070301D110F8013B2A1106D110F896
:100B2000012B03E010F8016B01F8016B5B1EF9D19A
:100B30002B0705D40023521E0DD401F8013BFAE720
:100B400010F8013BCB1A921C03E013F8015B01F88B
:100B5000015B521EF9D5A142D8D3002070BD000020
:100B60000C4B1C605D609E60DF60C3F81080C3F8B2
:100B70001490C3F818A0C3F81CB01EF0040F0CBFEB
:100B8000EFF30881EFF309817246042007F06CFE51
:100B9000FEE700003C040020B0B582B010B304466C
:100BA00009F012F940F27045C2F2000528780428D5
:100BB00032D0022820D000283ED120784FF47A7419
:100BC00005F10A0301284FF003004FF000010CBFAC
:100BD00004220122009409F0F9FAA8B308F0C2FE39
:100BE0002EE000BF40F27040C2F200000021017010
:100BF00008F0B8FE24E000BF08F0CCFE012807D0C2
:100C000008F0C8FE022823D10420287008F0AAFEAC
:100C1000022002B0B0BD00BF0020287021786A8990
:100C200001296A800DD1A889D5F80E10A880C5F8D1
:100C30000610002002B0B0BD08F094FE002028701D
:100C4000012002B0B0BD00BF0220287002B0B0BDCC
:100C50000020287008F086FEF2E7000070B58EB024
:100C600004464FF47A760DF11A0303200021012285
:100C70000096012509F068FA10B128460EB070BD43
:100C8000BDF81A00FFF759FD0390322001F09AF8E1
:100C90000DF11A030320002101220096012509F01D
:100CA00053FA0028E9D1BDF81A00FFF746FD049079
:100CB000322001F087F84FF47A7000900DF11A039A
:100CC000032000210122012509F03EFA0028D4D199
:100CD000BDF81A00FFF731FD0590322001F072F8DF
:100CE00046F2666203A8C3F6667201AB03210AF0FE
:100CF00093FF0025206028460EB070BDF0B591B07E
:100D000040F22804C2F20004204600F0C7F9C820CF
:100D100001F058F801AD0320294640220BF092FF64
:100D2000042809D2322001F04DF86378142B2BD11E
:100D3000606811B0F0BD00BF9DF804109DF805601B
:100D40009DF80620202921706670A270EAD1002E3D
:100D5000E8D0711ECAB23C2AE4D8F31CDBB2984238
:100D6000E0D340F2B8470806C2F2000704D0E91CFD
:100D700007F10C00FFF7F8F97119897807F10C00F9
:100D800060602172CEE700BF01AC07A2204620219F
:100D90000DF07CF82046FFF719FA81B220460CF0DE
:100DA00011FB002011B0F0BD4332483620534E20D5
:100DB000766572696679206661696C65642C206C61
:100DC000656E3D25750D0A00F0B591B040F2340412
:100DD000C2F20004204600F061F9322000F0F2FF78
:100DE00001AD0320294640220BF02CFF042803D23A
:100DF000606811B0F0BD00BF9DF804109DF805605B
:100E00009DF80620202921706670A270F0D1002E76
:100E1000EED0711ECAB23C2AEAD8F31CDBB298426B
:100E2000E6D340F2B8470806C2F2000704D0E91C36
:100E300007F10C00FFF798F97119897807F10C0098
:100E400060602172606811B0F0BD000040F2B840EF
:100E5000C2F2000000210172017801F0FE01017070
:100E6000704700002DE9F04F91B040F2B847C2F250
:100E700000073B7A0246042B4FF0020058D8DFE807
:100E800003F0035B575167003878C00776D11178BB
:100E900040F21000C2F200004170537802298370C2
:100EA0002BD3911C002200238E5C4568AE544578FC
:100EB00043F00106F6B2013DB5421EDD8D5D44688A
:100EC000A555457843F00206F6B2013DB54214DD62
:100ED0008D5D4468A555457843F00306F6B2013DA3
:100EE000B5420ADD8D5D44680433A5554678DDB210
:100EF000013EAE4202F10402D6DC40F21000C2F222
:100F0000000000F0CBF8002840D1381D322100222B
:100F100009F052FD387840F001003870022011B01D
:100F2000BDE8F08F00203872397801F0FE01397089
:100F300011B0BDE8F08F00BF381D09F02FFD00286B
:100F40001CBF787A3872022011B0BDE8F08F00BF64
:100F500049B140F21000C2F20000D0E90323406919
:100F6000C1E90023886000203872387800F0FE0064
:100F70003870012011B0BDE8F08F00BF01AC032034
:100F8000214640220BF05EFE042809D2381D322192
:100F9000032209F011FD022011B0BDE8F08F00BF5F
:100FA0009DF8041040F210059DF805809DF806900C
:100FB000C2F200052029297385F80D8085F80E906E
:100FC000E4D1B8F1000FE1D0A8F1010B5FFA8BFA80
:100FD000BAF13C0FDAD808F10301C9B28842D5D37F
:100FE0005FEA0B6018D007F10C06E11C3046524650
:100FF000FFF7BAF808EB040008EB090190F802E0EB
:101000002031BAF1040F0BF0030C2E6185F814E0C7
:101010000ED200231CE000BF08EB040090F802E0B1
:1010200007F10C01296185F814E009F121011FE0A5
:101030000AF03C050023FC18227B607BA67B114450
:10104000E47B0844304404339D4204EB0001F2D1B8
:10105000BCF1000F0CD03B44187BBCF1010F0144E4
:1010600006D0587BBCF1020F01441CBF987B0144A1
:101070004842C0B286457FF489AFB9F1060F3FF60A
:1010800085AFB8F1020FFFF481AF381D3221042281
:1010900009F092FC022011B0BDE8F08F002804BFD7
:1010A000012070472DE9F04F91B090F801A0AAF10E
:1010B0003E01C9B2C32903D2012011B0BDE8F08FAF
:1010C000BAF1010F02D041680029F5D0AAF101035D
:1010D00090F8008090F8029019068DF804808DF841
:1010E00005A08DF8069009D041685FFA83FCBCF139
:1010F000040F03F0030E05D2002419E04FF0000C9A
:101100002EE000BF0DF1040B0CF07C050BF1030782
:10111000002400BF0B5D0A193B5553780BEB040606
:101120003371937804347371D278A542B271F1D1DE
:10113000BEF1000F0ED00A5D01ABE718BEF1010F42
:10114000FA7007D021444A78BEF1020F3A711CBFF1
:1011500089787971BAF1000F07D0BAF1010F17D170
:1011600008EB0901013149420172007A01A90CEB37
:101170000102D0700AF10300C2B203204FF47A7367
:101180000BF09AFD002818BF012011B0BDE8F08FC8
:10119000D0F804E0BEF1000FE7D008EB0A014944A3
:1011A000BCF1040F0CF0030802D2002417E000BFCA
:1011B0000CF07C02C2F100090EF101066FF003058C
:1011C0007219D778137954793944927919440435CE
:1011D000214409EB050304331144F1D12C1DB8F16E
:1011E000000FC0D01EF80420B8F1010F1144BAD08E
:1011F0000EEB04077A78B8F1020F11441CBFBA78DD
:101200001144B0E7212811D0202822D140F25812F1
:101210004879C2F20002D1F800C00B795071887988
:10122000137190710020C2F800C0704740F258104E
:10123000C2F2000002680A700268120A4A7042880C
:101240008A70C278CA7002790A7142794A718079CB
:1012500088710020704700000020704710B541F2EF
:101260003044C2F2000440F6F451C2F200012046BC
:10127000002203F0CDFE40F6F411C2F20001204638
:1012800003F0C0FE002010BD2DE9F04141F23046D0
:101290000446C2F200060D463046214603F0B2FE77
:1012A000304603F091FE2968002900F0C68041F223
:1012B000EC30C2F200000288042901F0030C0DD2C8
:1012C0000023BCF1000F00F0B88011B200297BD4DC
:1012D000E15C402968D142F4004274E041F2243ECE
:1012E00021F003060023C2F2000E43F6F87805E071
:1012F00042F40042028004339E42E2D015B2002D37
:1013000012D4E55C402D03D142F400420BE000BF53
:10131000571C6FF39F320EF8025007EA0802C72AE3
:1013200088BF00273A46028015B2002D04EB030562
:1013300012D46F78402F03D142F400420BE000BF7B
:10134000511C6FF39F320EF8027001EA0802C72A9F
:1013500088BF00210A46028011B2002912D4AF785A
:10136000402F03D142F400420BE000BF511C6FF349
:101370009F320EF8027001EA0802C72A88BF0021D6
:101380000A46028011B20029B5D4ED78402DAFD0C5
:10139000511C6FF39F320EF8025001EA0802C72A6F
:1013A00088BF00210A46A5E741F22436571C6FF397
:1013B0009F32C2F20006B15443F6F8713940C72992
:1013C00088BF00273A460280BCF1010F35D011B228
:1013D000002904EB030115D44B78402B02D142F4D1
:1013E00000420EE041F22436571C6FF39F32C2F2E6
:1013F0000006B35443F6F8723A40C72A88BF002764
:101400003A460280BCF1020F17D013B2002B14D45D
:101410008B78402B02D142F400410DE041F2243799
:10142000511C6FF39F32C2F20007BB5443F6F872AF
:101430000A40C72A88BF002101800020BDE8F08152
:1014400080B582B040F24000C2F2000045F2AA51DD
:101450000078ADF806104FF47A7C0DF1060244F6E0
:10146000FF710123CDF800C009F004F8002818BF6F
:10147000012002B080BD0000002804BF0120704799
:10148000B0B582B0044600200DF107058DF80700C5
:101490002846214600F086F80228F9D0002840F0BE
:1014A0007D80642000F08EFC01200DF107058DF891
:1014B000070000BF2846214600F074F80228F9D042
:1014C00000286BD1642000F07DFC02200DF107059F
:1014D0008DF807002846214600F064F80228F9D06C
:1014E00000285BD1642000F06DFC03200DF107059E
:1014F0008DF807002846214600F054F80228F9D05C
:1015000000284BD1642000F05DFC04200DF107059C
:101510008DF807002846214600F044F80228F9D04B
:10152000E0BB642000F04EFC05200DF107058DF8AE
:10153000070000BF2846214600F034F80228F9D001
:1015400060BB642000F03EFC06200DF107058DF81D
:10155000070000BF2846214600F024F80228F9D0F1
:10156000E0B9642000F02EFC07200DF107058DF88E
:1015700007002846214600F015F80228F9D068B97E
:10158000642000F01FFC40F24001C2F2000120463E
:101590001422FEF7E9FD002002B0B0BD012002B028
:1015A000B0BD00002DE9F04381B00C46054608F0BF
:1015B0000BFC002D4FF0010018BF002C02D101B030
:1015C000BDE8F0832978802928D140F25C46C2F238
:1015D00000063078022855D0012879D108F0DAF9D0
:1015E000012800F0FB8008F0D5F9032800F0E48022
:1015F00008F0B8F97078032800F0F480022840F071
:10160000DB8006F10C004FF49671042209F0D4F946
:101610000220307001B0BDE8F08300BF0729CED8AA
:1016200040F25C46C2F200063078012872D00028F1
:1016300040F0B08040F240084EF6B019C2F2000807
:10164000C0F6000998F8000039F831104FF47A77A5
:1016500006F108030122009708F0A8FD2978002868
:1016600000F0B880072900F29A8009EBC100827966
:101670004188002A80880CBF28F8001008F8001064
:101680008DE000BF06F10C0009F088F9002800F099
:10169000A580F088324622F8040F002440F2400072
:1016A0001473C2F2000000784FF47A7742F211010D
:1016B0000123009708F09AFD002800F0878034800D
:1016C000B47008F04FF9012001B0BDE8F08300BF0D
:1016D0006878F83810F1F70FF5D340F2400045F282
:1016E000AA513246C2F20000007822F8041F4FF4DB
:1016F0007A71009144F6FF71012308F077FD0146ED
:10170000012000297FF45BAF6878F08040F201206F
:1017100063E000BF08F03EF901285FD0707801282F
:1017200038D1B7782878874234D1358908F032F932
:10173000072F18D8022806D04EF6B010C0F60000C9
:1017400000EBC70045884EF6B010C0F6000000EB75
:10175000C70081798088002940F24001C2F200016F
:101760000CBF0D520D5408F015F9851E4FF0000006
:1017700018BF01253080B07008F0F4F840F2400145
:10178000C2F2000120461422FEF7EEFC284601B00A
:10179000BDE8F08300203080B07008F0E3F840F23C
:1017A0004001C2F2000120461422FEF7DDFC0120B8
:1017B00001B0BDE8F08300BF00203080B07008F0B9
:1017C000D1F8012001B0BDE8F08300BF40F2013044
:1017D00003E000BFB17040F201103080022001B080
:1017E000BDE8F083F08840F24005C2F20005288091
:1017F00000203080B07008F0B5F820462946142249
:10180000FEF7B2FC002001B0BDE8F08340F24000DA
:10181000C2F2000070470000002804BF012070479A
:10182000F0B581B0044640F24000C2F20000827878
:1018300032B1042A02F0030104D20A22A9B917E046
:10184000012716E002F0FC020023012742F2107685
:1018500004333D46DFB2974205FB06F7F8D148F264
:10186000A062C0F201026A4311B1012916D11746E4
:10187000EFB10089FEF761FF06463846FEF75DFFCF
:1018800001463046FEF740FD44F20001C4F21C61FF
:10189000FEF708FD2060002001B0F0BD642757432B
:1018A00002EB8203022908BF5F00002FE1D1002074
:1018B0002060002001B0F0BD10B540F2D054C2F25B
:1018C0000004207860B14EF6FC00C0F60000032151
:1018D00006F0FAF800F0FE01022911D014E000BF72
:1018E0004EF6FF00C0F60000032106F0EDF80328D5
:1018F00006D0022808D101210120217010BD00BFAF
:101900000021217010BD00BF012010BDB0B582B014
:1019100040F240050221C2F200052878ADF8061019
:101920004FF47A7100910DF1060242F23001012369
:10193000012408F09FFD18B1204602B0B0BD00BFE1
:10194000BDF806000024E881204602B0B0BD0000CA
:1019500080B540F2B420C2F20000102100F002FA7B
:10196000002818BF012080BD80B540F6E4418842C0
:1019700038BF0146C1EB013047F20501C0F24F010B
:10198000A0FB0101880840F6FA72904238BF8A082D
:1019900040F2B420531DC2F200001021002200F0DA
:1019A000C5F9002818BF012080BD00007047000065
:1019B000EFF3108072B606200021002206F054FFDB
:1019C000FEE7000070B542F20C060446C4F20206BF
:1019D00000F032FC3168C9071CD13068800644BF72
:1019E000202030603068C00607D43069C00704D1B9
:1019F000306840075CBF002070BD3068C00641F60B
:101A00003830C2F2000021D400213268520725D4B8
:101A10002AE000BFC4B10546601C10D13068C00781
:101A2000DBD03068C0071CBF30685FEAC070D4D01C
:101A30003068C007F2D1D0E73068C007CDD000F0E1
:101A4000FBFB401BA042F7D9032070BDC16941F0E8
:101A50000201C16110213268520705D5C26941F007
:101A6000040142F00102C2613269D20702D10120B1
:101A7000316070BDC26942F00402C261306920F079
:101A8000010030610120316070BD0000B0B582B04E
:101A9000F0B1044607F0B2FF40F29845C2F20005EB
:101AA000287804283ED002281ED098BB207840F227
:101AB0007001C2F2000103284FF47A7405F10203A9
:101AC000087053D002285BD10120062150E000BFEE
:101AD00040F29840C2F200000021017007F060FF60
:101AE000012002B0B0BD00BF40F27001C2F200019F
:101AF00020780978884235D107F06AFF012831D073
:101B000007F066FF022805D10420287007F048FF7F
:101B100028E000BF0020287007F042FF012002B03B
:101B2000B0BD00BF40F27000C2F200002178007822
:101B3000814217D16888002203292A702CD00229FB
:101B40003CD12882FEF7F9FD0021C4F2C821FEF73E
:101B5000DBFB0021CCF2C821FEF74CFB68610020C2
:101B600002B0B0BD022002B0B0BD00BF012007210D
:101B70000122009407F0BEFF0028AFD108E000BFAB
:101B8000012004210222009407F0B4FF0028A5D10F
:101B90000220287002B0B0BD2883FEF7CEFD0021E0
:101BA000C4F2C821FEF7B0FB0021CCF2C821FEF739
:101BB00021FBE861002002B0B0BD00BFA98841EA66
:101BC0000040A860FEF7B9FDE860002002B0B0BD9B
:101BD00040F29840C2F2000008307047B0B582B0C1
:101BE0000446002001906CB14FF47A70009001AB74
:101BF000012004210222012507F036FF30B12846DA
:101C000002B0B0BD0125284602B0B0BDBDF8040049
:101C1000BDF8061040F2984541EA0040C2F20005C6
:101C2000A860FEF78AFDE86000252060284602B023
:101C3000B0BD000000284FF0010318BF002901D1FA
:101C4000184670474379012B4FF00203F8D010B5C6
:101C50000371036802F0100ED3F800C012C940F6F9
:101C6000FE7202FA0EF221432CEA020201FA0EF190
:101C700011431960C0211A6801FA0EF122EA01012C
:101C800019600121002301714371BDE8104018461D
:101C900070470000002804BF01207047017941B956
:101CA00010B500214171044600F00CF82046BDE853
:101CB00010400221017100210122016102710846D8
:101CC0007047000080B586B0016847F20040C4F25A
:101CD000000081424FF00001CDE90411CDE902116D
:101CE00002D006B080BD00BF41F21801C4F202016B
:101CF0004A6800F5144042F000524A604A6802F017
:101D000000520192019A0A6842F004020A600968CE
:101D100001F0040101910199202102910321039115
:101D200002A900F089F906B080BD000081B04FF033
:101D3000000CCDF800C088B10068002900904FF079
:101D40001400DDF800C008BF082010446044009073
:101D500000980360002001B0704700BF012001B06F
:101D600070470000002804BF012070474279012A13
:101D70004FF0020224D010B50271026801F0100C7D
:101D80004FF0010E14680EFA0CF32343136013682E
:101D900041B103F470113C2303FA0CF3994209D1C9
:101DA000022104E003F03C013C2903D101215368E6
:101DB000194351600121002201714271BDE81040B8
:101DC00010467047B0B5044600F036FA054640F2BA
:101DD0000400C2F200000078611C18BF044400BF78
:101DE00000F02AFA401BA042FAD3B0BD2DE9F0431F
:101DF00081B041F63835C2F200052A7E012A03D1AE
:101E0000022001B0BDE8F083044601202668287650
:101E10004CF250308846FFF7D5FD022E1CD1002829
:101E20004ED1002042F21004E861C4F2020420689E
:101E300040F004002060206840F0400020604CF238
:101E40005030FFF7BFFD216821F00401216000211F
:101E5000297601B0BDE8F08390BB4FF0FF30C8F8A1
:101E60000000D4E9027007EBC020874228D242F27A
:101E70001006C4F202064FF0000900BFC5F81C901E
:101E8000306840F0020030607760306840F0400019
:101E900030604CF25030FFF795FD316821F00201BF
:101EA000316098B9D4E9020107F5006700EBC12061
:101EB0008742E3D300200021297601B0BDE8F083FA
:101EC00001200021297601B0BDE8F083C8F8007038
:101ED0000021297601B0BDE8F083000042F2100134
:101EE000C4F20201086840F0800200200A607047D6
:101EF0002DE9F04381B041F63837C2F200071646AB
:101F00003A7E012A04D1022001B0BDE8F08300BF6F
:101F10000546012038764CF250300C469946FFF7C2
:101F200051FD28B10021397601B0BDE8F08300BF32
:101F300042F210080020C4F20208F861D8F800004C
:101F400040F00100C8F800004CF250302680FFF746
:101F500039FDD8F80010002821F00101C8F8001060
:101F600018BF0046DED1012DDCD00020F861D8F882
:101F70000000310C40F00100C8F800004CF2503075
:101F80006180FFF71FFDD8F80010002821F0010143
:101F9000C8F80010C6D1E81E10F1030F4FF0000082
:101FA000C0D8F861D8F8000040F00100C8F800007F
:101FB0004CF25030A4F80490FFF704FDD8F800105C
:101FC000002821F00101C8F80010ABD10020F86111
:101FD000D8F800004FEA194140F00100C8F80000AD
:101FE0004CF25030E180FFF7EDFCD8F800100028EB
:101FF00021F00101C8F8001018BF00460021397611
:1020000001B0BDE8F083000042F20400C4F2020017
:10201000C16809065CBF0020704740F22311C4F27A
:102020006751016048F6AB11CCF6EF510160C06812
:10203000C0B2C009704700002DE9F04F82B00E68B1
:10204000002E00F0E980A0F1804241F6004540F208
:102050000043A2F58432C4F201050624C4F2010350
:102060004FEAB227A84208BF05244FF0000E4FF0F8
:1020700001080F254FF0000A4FF0000B052F38BF65
:102080004FEAB224009408E00E680AF1010A36FA19
:102090000AF20EF1040E00F0BF8008FA0AFC16EAFC
:1020A0000C09F1D04E684FF6FF72C1F21002964251
:1020B00012DC122E56D8DFE806F0350B4D49555587
:1020C000555555555555555555555545510000BF14
:1020D000D1F80CB046E000BF4FF6FF72C1F221020A
:1020E00096420FDC0022C1F2110296421AD0002261
:1020F000C1F21202964215D00022C1F2210296428C
:1021000010D02FE00022C1F2220296420AD0002213
:10211000C1F23102964205D00022C1F2320296424B
:1021200020D100BF8A684AB1012A14BFC0F814C088
:10213000C0F810C04FF0080B14E000BF4FF0040BC4
:1021400010E000BFCA6802F1040B0BE04FF0000B77
:1021500008E000BFCA6802F1080B03E0CA6802F198
:102160000C0B00BF02467446B9F5807F24BF0432D1
:10217000203C166805FA04F726EA07070BFA04F66E
:1021800037431760CA79D2067FF57EAF41F2180750
:10219000C4F202073A684FF6084542F001023A607D
:1021A0003A68CFF6FF7502F001020192019A2AF017
:1021B00003021A440F2457590EF00C06B440A743EB
:1021C000009C04FA06F6374357514E6840F20C441F
:1021D000F2029A6854BF22EA090242EA0902C4F2F2
:1021E00001049A602268B70254BF22EA090242EA57
:1021F000090222605A68B70354BF22EA090242EA80
:1022000009025A600F251A68F70354BF22EA09022F
:1022100042EA09021A6037E702B0BDE8F08F000019
:102220008068084018BF012070470000002A08BFDE
:10223000090401617047000047F67C40C2F20000CB
:102240000068704740F2040047F67C41C2F200008B
:10225000C2F2000100780A6810440860704700006C
:1022600080B542F20000C4F20200016841F01001A2
:102270000160032000F08CF80F2000F005F800F05A
:1022800027F8002080BD000070B540F20406C2F2BD
:10229000000640F288013278C2F200014FF47A73EE
:1022A0000968B3FBF2F20446B1FBF2F1084601F013
:1022B00089FB0F2C4FF0010508D838B94FF0FF30DB
:1022C00021460022002500F037F87460284670BDD2
:1022D00082B041F21800C4F202000168022241F00B
:1022E00001010160016801F001010191019941685A
:1022F00041F080514160406800F0805000900098AB
:102300000420C4F20100016862F31A61016002B0A6
:1023100070470000002848BF704700F01F010122ED
:1023200002FA01F11C2202EAD0004EF20012CEF2B3
:10233000000281507047000010B54EF60C5CCEF2E2
:10234000000CDCF80030C3F3022E8EF00704042CDE
:1023500028BF0424BEF103034FF0FF3E0EFA04F43D
:1023600038BF0023A14399400EFA03F39A43114367
:1023700000F00F0200F160430901043A03F56443E1
:102380006244002848BF02F10C03197010BD000020
:102390004EF60C51CEF200010A684FF6FF031A40C8
:1023A00060F30A2242F0806040F0FD7008607047E0
:1023B00080B501F0070C0CEB8C0C00EBCC0C0CF195
:1023C000100C01EB810E090600EBCE0058BF00F5A2
:1023D000A87C5AB1ACF808301B0C01210A202CF85B
:1023E000003000208CF80C1080BD00BF00210620BA
:1023F0002CF8003000208CF80C1080BD70470000D5
:1024000001EB8102D0F8D43200EBC200426A1846D8
:1024100003F0A2B801EB8102D0F8D43200EBC20085
:10242000D0F86421184603F0FDB8000010B54FFA4B
:1024300081FC4FF4A87201F0070EBCF1000F48BFF9
:10244000102290F8904202440EEB8E034FEAD11C0A
:1024500002EBC301012C81F801C002F833E004BF94
:10246000022010BD0268012380F890320446104615
:1024700003F014FE002084F8900210BDB0B502797C
:1024800001F00F03934284BF0120B0BD4AB24FF464
:10249000A874002A48BF102401F0070E021990F812
:1024A00090420EEB8E034FEAD11C02EBC301012CCC
:1024B0004FF0000481F801C08C7002F833E004BFD3
:1024C0000220B0BD0268012380F890320546104614
:1024D00003F072FE204685F89042B0BD01F007017E
:1024E00001EB810100EBC100D0F86C0170470000E6
:1024F000B0B54FFA81FC4FF4A87401F0070EBCF19F
:10250000000F48BF102404440EEB8E054FEAD11C87
:1025100004EBC50181F801C004F835E00A61022B23
:10252000CB7004BF00220A7190F89022012A04BFE8
:102530000220B0BD0268012380F8903204461046A4
:1025400003F06CFC002084F89002B0BD10B501F0DF
:10255000070C0CEB8C0100EBC10E00680EF5A871A6
:102560000024CEF86421CEF86831CEF86C418EF8A4
:1025700051418EF850C103F073FE002010BD0000E1
:10258000B0B5027901F0070494424FF001022BD854
:102590004BB24FF4A875002B48BF10254FEAD11C51
:1025A00048BF2146054401EB810305EBC30181F8D7
:1025B00001C090F890C28A70BCF1010F05F8334059
:1025C00004BF0220B0BD02680123054680F89032A6
:1025D000104603F02BFE24B9286805F5267103F098
:1025E000E9FD002285F890221046B0BD80B501F0CB
:1025F000070C0CEB8C0100EBC10101F810CF006857
:102600004FF0010C01F1140781F824C04FF0000EC7
:1026100087E80C400B6281F801C003F021FE002026
:1026200080BD00002DE9F04F83B00446006804F03F
:1026300041FA01041ED4410500F1E483410400F194
:10264000F383810400F10884C10400F10F840105C3
:1026500000F12684810500F17584C00540F1E08316
:102660002068B0F8441021F48071A0F8441003B041
:10267000BDE8F08F2068B0F94410B1F1FF3F00F3DE
:10268000CF8304F5A871019104F1100148F2C0054F
:10269000029104F5267140F60F78009123E000BF07
:1026A000B0F8501094F8502100EB410101EB0211F9
:1026B000B1F80C34B4F8562100996FF39F23C4F895
:1026C0006C3104F0FBF92068018801EA08018031CF
:1026D0000180204600F0B8FD2068B0F94410B1F147
:1026E000FF3F00F39D83B0F8442012F00F090DD096
:1026F00030F929104FEA490BB1F1FF3F1FFA81FA77
:1027000030DD5FEA0A60E7D548E100BF0188D20604
:1027100062D401EA080101F500410180B0F85010CF
:10272000227C00EB410000EB0210B0F80404616A67
:102730006FF39F20E0620844606220460021FFF7AB
:102740005FFE607B0028C7D0A06A0028C4D1607BF0
:10275000216840F08000C0B2A1F84C0000206073F6
:10276000BAE700BF30F81B1001EA0801803120F8F9
:102770001B10019A09EB890102EBC106317B00298C
:1027800000F07E80F178022940F08A80B0F8503065
:102790003178B26900EB43035FEA4A4703EB011368
:1027A00000F19680B3F80C7400236FF39F27D21BBF
:1027B00038BF1A46B26140F2A1805FEA4A6200F176
:1027C000AD8030F8212002EA08022A4320F82120B7
:1027D000002F40F0A480C3E00A053FF561AF09B2C5
:1027E000B1F1FF3F3FF778AF018801EA080180317E
:1027F0000180B0F8501094F8502100EB410101EB3A
:102800000211B1F80C346FF39F23C4F86C3193B10B
:10281000D4F8641179B1B4F8562104F04FF9D4F822
:102820006401D4F86C110844C4F864012046002106
:10283000FFF7F0FD206801880A053FF54DAF01F470
:102840004051B1F5405F3FF447AFB0F8501000F28F
:102850000C42535A6FF39F235352D4F860313F2BED
:10286000C0F0E881DE068E5A4FEA53174FF0FF356D
:1028700008BF05EB531748F2C00546EA872362E21A
:10288000B0F85010327800EB410101EB0211B1F8C1
:102890000C746FF39F27002F62D07169F2885AE0A1
:1028A000317830F8212002EA08022A4320F821205A
:1028B00030F82120B0F8503000EB0111520401EB48
:1028C000430115D4B1F80C746FF39F273FBB47E069
:1028D000B3F8047400236FF39F27D21B38BF1A4646
:1028E000B2611FD95FEA4A622BD497BB38E000BFC0
:1028F000B1F804746FF39F275FBB31E030F82120FB
:1029000043F60F731A404CF28003A3F500535A406C
:1029100020F821205FEA4A627FF553AF07B371695F
:10292000728918E030F8212043F60F731A404CF2F8
:102930008003A3F500535A4020F821205FEA4A6241
:10294000D3D530F8212002EA08022A4320F82120BA
:1029500037B1716932893B4604F0B0F801E000BF3D
:102960000027F169D6E9050239443844F161706104
:1029700012B13069B84209D931782046FFF74AFDD3
:102980005FEA0A607FF5A8AE08E000BF2068314624
:1029900003F066FC5FEA0A607FF59EAE206809EBF3
:1029A000890130F81B20029B03EBC10602EA0801F3
:1029B00001F5004120F81B10F178012922D1317B6B
:1029C00000294FF00001B16100F02F815FEA4A61F8
:1029D00000F180807178012900F01481002940F015
:1029E0002481B0F850103278084400EB0210B0F89F
:1029F0000C146FF39F21A0F80C14B0F80C1441F4E0
:102A0000004106E15FEACA511ED4B0F85020317887
:102A100000EB420202EB0112B2F80424B3696FF337
:102A20009F229B1A4FF0000738BF3B46B36140F22C
:102A3000FD807169F369114471619918F161314642
:102A400003F00EFC48E600BFB0F850303178B569AD
:102A50005FEA4A6200EB011754D407F20C4E3EF8CD
:102A6000133000226FF39F23ED1A38BF1546B5616E
:102A70007CD95FEA4A4708D430F821704CF28005CF
:102A800007EA08072F4320F8217096F8241048F22F
:102A9000C005012940F0A981D6E904C1D6E907574C
:102AA00019441D4467457161F56180F0FB80002F7A
:102AB00000F06081BC46326286F82420737848F2C8
:102AC000C005012B40F0F780B0F850302EF803C05D
:102AD0007CE100BF7178012900F09E80002940F060
:102AE000A480B0F850103278084400EB0210B0F81F
:102AF00004146FF39F21A0F80414B0F8041441F4F7
:102B0000004190E007F2044939F8133000226FF3D6
:102B10009F23ED1A38BF1546B5614DD95FEA4A4784
:102B200008D530F821704CF2800507EA08072F43DA
:102B300020F8217096F8241048F2C005012940F0D1
:102B40005481D6E90471D6E9075E19441D44BE4597
:102B50007161F56180F0CE804FF0000CBEF1000F86
:102B600086F824C040F0C9809E46C8E0737848F2D9
:102B7000C005012B6AD0002B71D1B0F850303B4416
:102B8000B3F804746FF39F27A3F80474B3F80474C4
:102B900047F40047A3F80474B0F850003EF8003042
:102BA0006FF39F232EF800303EF8003043F40043CB
:102BB0002EF8003053E000BF737848F2C005012BB7
:102BC00054D0002B5BD1B0F8503039F803506FF37C
:102BD0009F2529F8035039F8035045F4004529F89A
:102BE0000350B0F8500048F2C0053844B0F80C2447
:102BF0006FF39F22A0F80C24B0F80C2442F400429A
:102C00003BE000BFB0F850103278084400EB0210EF
:102C10000021A0F80C1408E0B0F8501032780844F5
:102C200000EB02100021A0F8041431782046FFF7D1
:102C3000E7FB51E5002B00F0858003F00107565AB1
:102C400007EB530346EA832382E000BFB0F850301D
:102C50003B44A3F80424B0F850002EF8002020468E
:102C6000FFF7CEFB5FEA4A4010D5BEE0B0F8503027
:102C700029F80320B0F850003844A0F80C2420466E
:102C8000FFF7BEFB5FEA4A4040F1AF802068317831
:102C90004CF2800330F8212002EA08021A4320F89F
:102CA0002120A2E0A7EB0C033362737848F2C00541
:102CB000012B3FF409AF002B40F08880B0F8503072
:102CC000BCF13F0F3EF803706FF39F272EF803709F
:102CD0005AD35FEACC654FEA5C173EF803504FF0D9
:102CE000FF3208BF02EB5C1745EA872748F2C005B0
:102CF00068E000BFAEEB070CBE46C6F820C0737894
:102D000048F2C005012B2FD0002B69D1B0F850300C
:102D1000BEF13F0F39F803706FF39F2729F8037056
:102D200040D35FEACE654FEA5E1739F803504FF0A3
:102D3000FF3208BF02EB5E1745EA872748F2C0055D
:102D40004AE000BF535A48F20007CFF6FF773B43F3
:102D50008B52018843F60F7211404CF28002A2F5AB
:102D6000805251400180B7E4B0F8503029F803E0B8
:102D700036E000BF002786F824709C46737848F23E
:102D8000C005012B97D19FE6BCF1000F18D00CF0C5
:102D900001073EF8035007EB5C0745EA872748F236
:102DA000C00511E0BEF1000F14D00EF0010739F894
:102DB000035007EB5E0745EA872748F2C0050DE0A0
:102DC0003EF8037047F400472EF8037072891FFA2B
:102DD0008CF308E039F8037047F4004729F80370D2
:102DE00032891FFA8EF303F0CDFE2068317840F669
:102DF0003F7330F821201A40A5F110035A4020F803
:102E0000212069E42068B0F8441021F48061A0F822
:102E10004410204600F0EAF994F8900201280DD100
:102E200003B0BDE8F08F00BF2068B0F8441021F473
:102E30008041A0F8441003B0BDE8F08F01200025C8
:102E400084F8900265732068002103F093FE84F8F3
:102E5000905203B0BDE8F08F2068B0F8441021F420
:102E60000051A0F8441003B0BDE8F08F2068B0F81E
:102E7000401021F00401A0F84010B0F8401021F0FB
:102E80000801A0F84010204600F0C2F92068B0F810
:102E9000441021F48051A0F8441003B0BDE8F08F35
:102EA0002168B1F800C0B1F804E0B1F808808F895A
:102EB0000E8A8D8A088B8A8BB1F8403043F001036B
:102EC000A1F84030B1F8403023F00103A1F84030C0
:102ED000B1F844305B050CD4B1F844305B055CBFFD
:102EE000B1F844305FEA435303D4B1F844305B0592
:102EF000EED5B1F8443023F48063A1F84430A1F852
:102F000000C0A1F804E0A1F808808F810E828D82B4
:102F100008838A83B1F8400040F00800A1F840001F
:102F2000B1F8440020F40060A1F84400B1F840007A
:102F300040F004022046A1F8402003B0BDE8F04F65
:102F400000F0A4B92168B1F8440020F400722046D2
:102F5000A1F8442003B0BDE8F04F00F05DB90000D7
:102F6000002804BF01207047F0B581B0044690F8F6
:102F7000910228B9002084F89002204600F014F94C
:102F8000032084F8910220680021617103F008F9A0
:102F900094E80700237B03F07FF8002840F0F280DC
:102FA0002068002103F0E4FD002840F0EB8094F855
:102FB00004E0BEF1000F00F0DF800EF0030CBEF164
:102FC000040F4FF0000237D30EF0FC03A4F1A00071
:102FD00003210125CE1E80F8B0608E1E80F8D860D7
:102FE0004E1E80F8006180F828110E1D013180F816
:102FF000B15080F8B320C0E93022C0F8C82080F872
:10300000D95080F8DB20C0E93A22C0F8F02080F8DF
:10301000015180F80321C0E94422C0F8182180F84A
:10302000295180F82B21C0E94E22C0F84021A03060
:1030300099423146CED1F21EBCF1000F2ED004F1E0
:10304000100002EB820100EBC105012300F83120E2
:103050000021BCF1010F6B70E970C5E90411A96191
:103060001CD0551C05EB850600EBC607BCF1020F12
:103070007B7000F83650F970C7E90411B9610DD0C2
:10308000911C01EB810200EBC203012500F8321014
:1030900000205D70D870C3E904009861BEF1000F94
:1030A0006AD0BEF1040F4FF0000235D30EF0FC00E1
:1030B00003212346CF1E83F850718F1E83F8787149
:1030C0004F1E83F8C8110D1D013183F8512183F87B
:1030D0005321C3E95822C3F8682183F8792183F882
:1030E0007B21C3E96222C3F8902183F8A12183F8F0
:1030F000A07183F8A321C3E96C22C3F8B82183F837
:10310000C92183F8CB21C3E97622C3F8E021A0339B
:1031100081422946CED1EA1EBCF1000F2CD004F525
:10312000A87002EB820300EBC3070021BCF1010F82
:10313000797000F83320F970C7E90411B9611BD028
:10314000531C03EB830700EBC706BCF1020F717041
:1031500000F83730F170C6E90411B1610CD0911C50
:1031600001EB810200EBC20300275F7000F8321010
:10317000DF70C3E904779F6194E80700237B03F0C5
:1031800001F828B1022084F89102012001B0F0BDBD
:1031900000206073012084F89102206802F0F0FFA3
:1031A000002001B0F0BD0000006845F60041C4F207
:1031B0000001884218BF704780B582B041F21C0000
:1031C000C4F202000168002241F4000101600068BD
:1031D000002100F40000019001981420FFF7ACF8E2
:1031E000142002B0BDE88040FFF794B810B5044643
:1031F0008079022818BFFEF7DBFBD4F8D402012146
:1032000002F014FBD4F8D402BDE8104002F0CCBAAE
:10321000D0F8D40202F0F2BAD0F8D40202F0F8BA30
:1032200090F89022012A04BF0220704710B50122B5
:1032300080F89022417302680446104603F09AFC1D
:10324000002084F8900210BDD0F8D42200F5267139
:10325000104602F001BB000090F89012012904BF53
:103260000220704710B50168012280F890220446C0
:10327000084603F00FFC20460121FFF7BFF8206845
:1032800002F07CFF002084F8900210BD10B50446C7
:10329000D0F8D40202F032FBA07A002808BF10BD9B
:1032A0004EF61050CEF20000016841F006010160B8
:1032B00010BD00002DE9F04182B00446007841F2D3
:1032C0001C06C007C4F202064AD030685FEAC00894
:1032D00008D4306840F080503060306800F0805092
:1032E0000190019847F20007C4F200073868C00552
:1032F00012D4386840F480703860FEF79DFF0546B0
:103300003868C00508D4FEF797FF401B6428F7D93A
:10331000032002B0BDE8F081706810F4407012D054
:10332000616801F4407188420DD0706840F24042FB
:10333000C4F24222012320F4407113600023C0072D
:103340001360716026D17068616820F44070084392
:10335000B8F1000F706003D4306820F08050306006
:103360002068810707D556F8181CA26821F440414F
:10337000114346F8181CC00607D556F8180C6169A9
:1033800020F48000084346F8180C002002B0BDE885
:10339000F08100BFFEF750FF054641F2883700BFBD
:1033A00070688007CFD4FEF747FF401BB8424FF04C
:1033B0000300F5D9EAE70000002804BF01207047A8
:1033C0002DE9F04381B042F20008C4F2020804463D
:1033D000D8F800000D4600F0070081420CD9D8F85B
:1033E000000020F007002843C8F80000D8F80000CB
:1033F00000F00700A8426CD1206841F2040981075F
:10340000C4F2020917D5410705D5D9F8001041F4D7
:10341000E061C9F80010010705D5D9F8001041F4A2
:103420006051C9F80010D9F80010A26821F0F0012D
:103430001143C9F80010C00742D1D8F8000000F0CD
:10344000070085420CD2D8F8000020F0070028437E
:10345000C8F80000D8F8000000F00700A84238D1F2
:103460002068410707D5D9F80010E26821F4E0612F
:103470001143C9F80010000708D5D9F800002169E8
:1034800020F4605040EAC100C9F80000D9F80020DB
:1034900002F00C00082841F20020C0F27A004DD161
:1034A0004EF69413C2F38341C0F60003595CD20375
:1034B00038D440F60010C0F23D0048433EE000BF63
:1034C000606859F8041C022808D0012826D1890315
:1034D00006D4012001B0BDE8F08300BF8901F8D512
:1034E000D9F8001021F003010843C9F80000FEF7E5
:1034F000A3FE064641F28837D9F80000616800F063
:103500000C00B0EB810F98D0FEF796FE801BB842FE
:10351000F2D9032001B0BDE8F08300BF8907D8D5F8
:10352000DEE700BFD9F800204EF60213C2F3404296
:10353000C0F600039A5C4843B0FBF2F0D9F80010E3
:103540004EF6E402C1F30311C0F60002515C40F2F2
:10355000880220FA01F140F20800C2F2000000687F
:10356000C2F200021160FEF78FFE002001B0BDE83C
:10357000F083000040F2880041F20401C2F2000032
:10358000C4F20201006809684EF6F402C1F3022198
:10359000C0F60002515CC8407047000040F288004D
:1035A00041F20401C2F20000C4F20201006809689D
:1035B0004EF6F402C1F3C221C0F60002515CC840CD
:1035C00070470000002804BF012070472DE9F0413A
:1035D00082B00446007841F20006C007C4F2020639
:1035E0000CD0706800F00C00042840F08180306836
:1035F000800303D56068002800F0468120788007AA
:103600001BD5706810F00C0F09D0706800F00C002A
:10361000082840F087807068C00300F1838030681C
:10362000800703D52069012840F02E813068616948
:1036300020F0F80040EAC10030602078000713D481
:10364000207840072CD4E569002D00F018817068BF
:1036500000F00C00082840F0A780012D40F0048104
:10366000012002B0BDE8F081A069002800F084804C
:103670000020C4F242200121C0F88014FEF7DCFDD6
:10368000054600BF706A800700F1B280FEF7D4FDE6
:10369000401B0228F6D9032002B0BDE8F08100BF2C
:1036A000F0695FEAC00808D4F06940F08050F0612A
:1036B000F06900F080500090009847F20007C4F2D3
:1036C00000073868C00549D4386840F48070386015
:1036D000FEF7B2FD054600BF3868C0053ED4FEF7D0
:1036E000ABFD401B6428F7D9032002B0BDE8F08190
:1036F000706800F00C00082803D17068C0033FF523
:1037000076AF61683068002900F00C81B1F5A02F18
:1037100000F00081B1F5803F40F01A8140F4803024
:103720001CE100BF2069002840F20000C4F24220E2
:1037300000F0888001210160FEF77EFD054600BF94
:10374000306880073FF572AFFEF776FD401B022818
:10375000F6D9032002B0BDE8F08100BFE168306A0D
:10376000002900F09D80052900F09280012940F099
:10377000AF8040F00100B1E00020C4F242200021FF
:10378000C0F88014FEF758FD054600BF706A800738
:103790007FF556AFFEF750FD401B0228F6D90320F7
:1037A00002B0BDE8F08100BF0027C4F2422700202C
:1037B0003866FEF741FD022D05460DD130688001C7
:1037C00040F1DE80FEF738FD401B02284FF0030079
:1037D000F4D902B0BDE8F081306880014FD5FEF722
:1037E0002BFD401B02284FF00300F5D9F1E700BF85
:1037F00040F28800C2F20000006844F6D351C1F2E2
:103800006201A0FB0101480A019000BF00BF0198BE
:10381000411E002801913FF413AF00BF0198411EE3
:10382000002801913FF40CAF00BF0198411E002811
:1038300001913FF405AF00BF0198411E002801919E
:10384000E4D1FDE600210160FEF7F6FC054600BF6D
:10385000306880077FF5F1AEFEF7EEFC401B0228D2
:103860004FF00300F4D9B4E77068216A00F48032A5
:103870008A4209D1616A00F47010884204D10020A4
:1038800002B0BDE8F08100BF012002B0BDE8F081C8
:1038900040F004003062306A40F001001EE000BFDA
:1038A00020F001003062306A20F004003062FEF740
:1038B000C3FC054641F28837306A800720D5FEF701
:1038C000BBFC401BB8424FF00300F5D981E700BFB5
:1038D00020F001003062306A20F004003062FEF710
:1038E000ABFC054641F28837306A800708D4FEF702
:1038F000A3FC401BB842F7D9032002B0BDE8F08119
:10390000B8F1000F3FF59FAEF06920F08050F061F4
:1039100099E600BF40F480203060306840F4803089
:103920001CE000BF20F480303060306820F480203C
:103930003060FEF781FC0546306880037FF55EAE9F
:10394000FEF77AFC401B64284FF00300F4D940E7EF
:1039500020F480303060306820F480203060FEF742
:103960006BFC0546306880033FF548AEFEF764FC0B
:10397000401B6428F6D9032002B0BDE8F08100BFE7
:10398000206AB0F5803F05D17168A26821F400314A
:10399000114371607168626A21F474111143084324
:1039A000706001203866FEF747FC044630688001ED
:1039B0003FF565AFFEF740FC001B02284FF0030007
:1039C000F4D906E7411E0020B0EB116F1CBF0120A7
:1039D00070474EF21002CEF2000251604EF62351B3
:1039E000CEF20001F0230B70072190601160704748
:1039F00090F83C20012A04BF02207047B0B501F1C5
:103A000008053CCDD1E900CE23F47C5322F470525A
:103A10001A432EF4F0431A432CF4E0431A4324F4DF
:103A2000C0431A432A43C96922F480420368114300
:103A30005964002180F83C100020B0BD90F83C2073
:103A4000012A4FF0020242D010B580F83D200268F2
:103A5000D2F804E0D2F808C00C682EF070032343BB
:103A600040F6FF34C4F20004A242536010DCB2F10D
:103A7000804F1FD040F20043C4F200039A4219D095
:103A800040F60003C4F200039A4213D017E000BFCF
:103A900040F60043C4F200039A420BD043F20043C5
:103AA000C4F201039A4205D042F60043C4F2010376
:103AB0009A4204D149682CF0800319439160012196
:103AC000002280F83D1080F83C20BDE810401046F0
:103AD00070470000002804BF0120704710B504465D
:103AE00090F83D0028B9002084F83C00204600F002
:103AF0001FF8022084F83D002068211D00F0DEFF41
:103B0000012084F8460084F83E0084F83F0084F8E1
:103B1000400084F8410084F8420084F8430084F8AF
:103B2000440084F8450084F83D00002010BD0000EA
:103B300082B00068B0F1804F14D042F60041C4F268
:103B4000010188421BD141F21800C4F20200016851
:103B500041F400610160006800F400600190019888
:103B600002B0704741F21800C4F20200416841F00F
:103B700001014160406800F001000090009802B02F
:103B80007047000090F83C20012A4FF002026CD0F0
:103B900080B580F83D20D0F800C04FF67772DCF891
:103BA000083023EA0202CCF808200B684F2B29DCEE
:103BB0001F2B45DD202B46D0302B44D0402B40F02E
:103BC000AF80D1F804E0C968DCF82030DCF82020B0
:103BD00022F00102CCF82020DCF8182022F0F002BC
:103BE00042EA011123F00A0242EA0E02CCF8181050
:103BF000CCF82020DCF8081041F0470121F030011A
:103C000028E000BF6F2B33DDB3F5005F74D0B3F550
:103C1000805F21D0702B40F08380D1E901E3C96837
:103C2000DCF8082043EA0E0322F47F4243EA012134
:103C30001143CCF80810DCF8081041F0770109E0D6
:103C40000BB1102B6CD1DCF8081021F07001194376
:103C500041F00701CCF808100022012180F83D1046
:103C6000002180F83C10BDE880401046704700BF3E
:103C7000502B21D0602B53D1D1F804E0C968DCF877
:103C80002030DCF8202022F01002CCF82020DCF8D4
:103C9000182022F4704242EA013123F0A00242EAE5
:103CA0000E12CCF81810CCF82020DCF8081041F0E7
:103CB000670121F01001CDE7D1F804E0C968DCF814
:103CC0002030DCF8202022F00102CCF82020DCF8A3
:103CD000182022F0F00242EA011123F00A0242EA1F
:103CE0000E02CCF81810CCF82020DCF8081041F0B7
:103CF000570121F02001ADE7D1E901E3C968DCF803
:103D0000082043EA0E0322F47F4243EA01211143D3
:103D1000CCF80810DCF8081041F480419AE700BFA5
:103D200001229AE780B586B000680021B0F1804F8B
:103D3000CDE904110391029116D042F60041C4F27C
:103D40000101884229D141F21800C4F20200016841
:103D500041F004010160006800F004000190019846
:103D60004FF480700EE000BF41F21800C4F2020070
:103D7000016841F004010160006800F00400019056
:103D800001980320029002200390059040F6000065
:103D9000C4F2010002A9FEF74FF906B080BD000091
:103DA00090F83C30012B04BF022070474FEAB2026A
:103DB000032A00F21D812DE9F041DFE802F003C77C
:103DC000479100BF036843F200461D6A1A6A25F056
:103DD000020522F001021A621A465C6852F818CFF6
:103DE0008F68D1F800E0C4F20106B34245EA070546
:103DF00005D042F60047C4F20107BB4205D1CF68A7
:103E000025F00C0527F004073D43B34205D042F6E8
:103E10000046C4F20106B34205D1D1E9056724F496
:103E2000407434433C432CF0730747EA0E075C6050
:103E30009F614F6809695F631D629F6947F00807CA
:103E40009F619F6927F004079F61C6E0036843F202
:103E500000461D6A1A6A25F4007522F480721A62FF
:103E60001A46D3F804C052F81CEF8F68D1F80080CE
:103E7000C4F20106B34245EA072505D042F60047E1
:103E8000C4F20107BB4208D1CF6840F2FF443F02B1
:103E900025F4406527EA04042543B34205D042F6E1
:103EA0000044C4F20104A34206D1D1E905462CF432
:103EB0004057264347EA061C2EF0730747EA0807D7
:103EC000C3F804C0DF614F680969DF631D62DF6901
:103ED00047F00807DF61DF6927F00407DF617CE056
:103EE000036843F20047D3F820C01A6AC4F20107FE
:103EF00022F480521A621A465C6852F81C5FD1F8AC
:103F000000E08E68BB4205D042F60047C4F20107CC
:103F1000BB4204D14F6924F4804444EA87142CF452
:103F2000005747EA063725F4E64646EA0E265C6067
:103F3000DE614E6809691E641F62DF6947F400672D
:103F4000DF61DF6927F48067DF6145E0036843F2E2
:103F500000481D6A1A6A25F0200522F010021A6234
:103F60001A465C6852F818CF8F68D1F800E0C4F2A6
:103F70000108434545EA071505D042F60047C4F25B
:103F80000107BB4207D1CF686FF0400625F0C0059E
:103F900006EA07163543434505D042F60046C4F20B
:103FA0000106B34206D1D1E9056724F440643E43DB
:103FB00044EA86042CF4E64747EA0E275C609F61DA
:103FC0004F6809699F631D629F6947F400679F619D
:103FD0009F6927F480679F61090213681943116084
:103FE0000021BDE8F041002280F83C2008467047DF
:103FF0000121002280F83C2008467047002804BFB9
:104000000120704710B5044690F83D0028B9002003
:1040100084F83C00204600F01FF8022084F83D00A0
:104020002068211D00F04AFD012084F8460084F834
:104030003E0084F83F0084F8400084F8410084F892
:10404000420084F8430084F8440084F8450084F872
:104050003D00002010BD000070470000C1B10429E0
:1040600008D0082914BF41224022825C012A05D0D1
:1040700016E000BF3F22825C012A11D102220829EA
:1040800010D0042914BF80F8412080F83F200BE0B5
:1040900090F83E20012A03D1022280F83E2003E05E
:1040A0000120704780F84020006801F01F010122C4
:1040B000036A02FA01F123EA01020262026A114371
:1040C00040F6FF32C4F20002904201620EDCB0F111
:1040D000804F25D040F20041C4F2000188421FD039
:1040E00040F60001C4F2000118E000BF40F60041B4
:1040F000C4F20001884213D043F20042C4F201022C
:1041000042F600419042C4F2010101D088420ED132
:10411000436C904243F40043436401D0884206D18B
:10412000816801F00701062904BF0020704701687B
:1041300041F001010160002070470000B0B5044665
:1041400090F83C0001284FF0020008BFB0BD0125E7
:1041500084F83C5084F83D00204600F01FFD002804
:104160004FF0010006D0002184F83D5084F83C1047
:10417000B0BD00BF2068C16821F04001C160C168C6
:1041800021F48041C1600020002184F83D5084F872
:104190003C10B0BD002804BF0120704710B5044694
:1041A00090F8410028B9002084F84000204600F033
:1041B00063F8242084F841002068D4E90212C3681F
:1041C00023F40053C360036923F440531A4302618C
:1041D000D4E904231143C268194341F20C639A43A2
:1041E0001143C1604169A26921F44071114343F652
:1041F0000002C4F201029042416103D0FFF7BAF914
:1042000002E000BFFFF7CAF9D4E9002319214843AF
:104210009900B0FBF1F048F21F5CC5F2EB1CA0FB6B
:104220000C314FF69C734909C0F6FF7301FB030084
:10423000322303EB0010A0FB0C03F02000EA531024
:1042400000EB0110C3F34311084490601069202172
:1042500020F490401061506920F02A005061D0682D
:1042600040F40050D0600020606484F8411084F86D
:104270004210606310BD0000B0B586B0006844F61F
:10428000FF31C4F2000188424FF00001CDE9041172
:10429000CDE902113EDC44F20041C4F20001884243
:1042A0007AD044F60001C4F20001884240F0E68072
:1042B00041F21800C4F20200416840F6004441F4A3
:1042C000802141604168C4F2010401F48021019120
:1042D0000199016802AD41F00801016000682946BA
:1042E00000F00800019001984FF4806002900220D5
:1042F0000390032005902046FDF79EFE4FF40060DA
:1043000002900020CDE9030020462946FDF794FEE7
:104310002724ABE043F60001C4F2010188426DD0CE
:1043200044F60041C4F20001884240F0A78041F207
:104330001800C4F20200416802AD41F4002141605E
:10434000416801F4002101910199016841F01001D7
:1043500001600068294600F01000019001984FF4B8
:1043600080600290022003900320059040F60040F8
:10437000C4F2010000F580642046FDF75DFE4FF4B5
:10438000006002900020CDE9030020462946FDF799
:1043900053FE34246AE000BF41F21800C4F2020068
:1043A000416802AD41F400314160416801F40031DF
:1043B00001910199016841F00401016000682946FA
:1043C00000F0040001900198042002900220039064
:1043D0000320059040F60040C4F20100A0F580647F
:1043E0002046FDF729FE082002900020CDE90300B9
:1043F00020462946FDF720FE262437E041F218002A
:10440000C4F20200016840F6004441F480410160BA
:104410000168C4F2010401F480410191019901682D
:1044200002AD41F0080101600068294600F0080073
:1044300001900198402002900220039003200590F3
:104440002046FDF7F9FD802002900020CDE9030011
:1044500020462946FDF7F0FD0420C4F20100016862
:10446000252441F0E06141F0040101602046002173
:104470000022FDF761FF2046FDF74CFF06B0B0BDFE
:104480002DE9F04381B0044690F84100202809D17D
:1044900000294FF0010018BF002A07D101B0BDE884
:1044A000F08300BF022001B0BDE8F083002060640B
:1044B00021201D460E4684F841001746FDF7BCFE3C
:1044C000A784E784A1688146B1F5805F02D12069A5
:1044D00000285DD037460020E28C2168002A5DD09C
:1044E0006A1C24D0002D4AD0804600BF0868000610
:1044F00008D4FDF7A1FEA0EB0900A8427AD82168F4
:10450000C868F3E717B117F8010B04E038F8020B9D
:1045100000276FF35F204860E08C0138E084E08C76
:104520000028E3D13AE000BF0A68120609D40A68FD
:10453000120606D40A6812065CBF0A685FEA0262C5
:10454000F2D51FB117F8012B05E000BF30F8022BA0
:1045500000276FF35F224A60E28C013AE284E28C2A
:10456000002AE4D11AE000BF30F8022B00276FF3D5
:104570005F224A60E28C013AE284E28C72B10A68FE
:10458000120635D5002FEFD017F8012BF1E700BF49
:1045900000273046E28C2168002AA1D10868400635
:1045A0001ED42DB3681C14D1086840062AD40868AC
:1045B000400627D40868400624D4086840064FF017
:1045C0000000F1D50DE000BF2068C168006840061A
:1045D00018D4FDF731FEA0EB0900A842F4D909E098
:1045E0000020202184F8411001B0BDE8F08300BF15
:1045F000FDF722FE0320202184F8411001B0BDE820
:10460000F08300BF0020202184F8411001B0BDE8F4
:10461000F08300000246002840F60040C4F201008A
:104620004FF4004118BF0122FDF700BE80B582B0F3
:1046300045F6AA20C0F25A0001908220C5F2FC5033
:1046400000906846072103F02BFF02B080BD0000F8
:10465000F0B58BB040F28501C2F200010978044642
:1046600001F0030102294FD001294AD140F25057ED
:10467000C2F200077E7F701E03281AD802AD2846BA
:1046800008F05EFAA8B905EBC60656F8085D41F2D7
:104690006F2125F00040C3F68321FCF709F840B9EB
:1046A000766828462146FBF7FDFD3146FBF7A2FD63
:1046B00004464EF68610C0F600000F2103F0F0FE0F
:1046C00040F27C55C2F2000505F14301204607F097
:1046D0009DFA05F14000072103F0E2FE002003905F
:1046E0008220C0F2FC00029002A8072103F0D8FE4D
:1046F000A87A7E7F40F01000A872684606F0CAFAD9
:1047000050B30BB0F0BD00BF42F68310C8F20010EA
:1047100000906846042103F0C3FE40F27C55C2F2CB
:10472000000505F14301204607F070FA05F140004D
:10473000072103F0B5FE002003908220C0F2FC00A8
:10474000029002A8072103F0ABFEA87A40F0100007
:10475000A8720BB0F0BD00BF9DF800009DF80210DC
:104760008DF808008DF80910DDF80300711E03298B
:10477000CDF80A0006D80CA000EB860050F8040C17
:1047800004E000BF44F65560C4F64B60A97BCDF849
:104790000E008DF8121002A80F21CDF8134008F07A
:1047A0002FF80BB0F0BD00BF483220204332483212
:1047B000434834204332483670B588B040F2850112
:1047C000C2F20001097801F0030102292CD001296D
:1047D00028D140F25051C2F200014E7F711E0329D0
:1047E00013D86D460446284608F0AAF960B905EBCF
:1047F000C60656F8085D41F26F2125F00040C3F669
:104800008321FBF755FFF8B1204640F27C54C2F2F9
:10481000000404F1430107F0F9F904F14000072115
:1048200003F03EFE08B070BD40F27C54C2F20004BA
:1048300004F1430107F0EAF904F14000072108B050
:10484000BDE8704003F02CBE766828462146FBF791
:1048500029FD3146FBF7CEFCD7E7000040F285008A
:10486000C2F20000007800F0030002280AD00128FC
:1048700018BF70474EF67510C0F600000F2103F008
:104880000FBE00BF4EF65210C0F60000042103F028
:1048900007BE000080B582B0002001908220C0F2E7
:1048A000FC0000906846072103F0FAFD02B080BDCD
:1048B00010B540F27C54C2F2000461892078C140F6
:1048C000C90704D007A151F82000804720780130A3
:1048D000C1B239225143490A01EBC101401A20708B
:1048E00010BD00BF316D00084D720008E97400086A
:1048F000956F0008FD70000871750008617200086E
:10490000516E0008FD7400080C4B1C605D609E60D9
:10491000DF60C3F81080C3F81490C3F818A0C3F880
:104920001CB01EF0040F0CBFEFF30881EFF30981F8
:104930007246022003F098FFFEE700003C040020CE
:1049400080B541F2304040F25401C2F20000C2F2A0
:104950000001002200F0C4FD002818BFFDF728F870
:1049600041F2304040F28C01C2F20000C2F200017C
:1049700000F0ECFF002818BFFDF71AF841F23040B4
:1049800040F2B811C2F20000C2F2000100F032FBA6
:10499000002818BFFDF70CF841F23040C2F20000C9
:1049A00000F0EAFF002808BF80BDBDE88040FCF7AA
:1049B000FFBF00000C4B1C605D609E60DF60C3F8B1
:1049C0001080C3F81490C3F818A0C3F81CB01EF0F0
:1049D000040F0CBFEFF30881EFF309817246032047
:1049E00003F042FFFEE700003C040020FEE7000069
:1049F0007047000002F0F6BF03F02AB870470000CD
:104A000080B503F02BF8BDE88040FDF71BBC00002B
:104A1000B0B596B000240120CDE91144CDE90F4492
:104A20000C9010904FF480104FF4803102251590B7
:104A30000CA8CDE90444CDE90244CDE90D14CDE93B
:104A40001351FEF7BFFD48B1EFF3108072B6062098
:104A50000021002203F008FFFEE700BF0F20CDE990
:104A600007054FF48060CDE90A0407A801210994E5
:104A7000FEF7A2FC50B1EFF3108072B606200021C1
:104A8000002203F0F1FE00BFFEE700BF10200190FE
:104A90004FF48000069001A8FEF70CFC50B1EFF334
:104AA000108072B606200021002203F0DDFE00BF58
:104AB000FEE700BF16B0B0BD7047000010B540F66D
:104AC000FF320368C4F2000240F6004E43F2004C8D
:104AD0009042C4F2000EC4F2010C21DCB0F1804F10
:104AE00028D040F20044C4F20004A04222D040F694
:104AF0000004C4F20004A0421CD0904220DCB0F1BB
:104B0000804F27D040F20042C4F20002904221D0F0
:104B100040F60002C4F2000290421BD01EE000BF2B
:104B2000704507D0604505D042F60044C4F2010448
:104B3000A042E2D14C6823F0700323439042DEDDB3
:104B4000704507D0604505D042F60042C4F201022C
:104B5000904203D1CA6823F4407313434C6923F095
:104B60008002D1F800E08B68224360450260C36296
:104B7000C0F828E005D042F60042C4F2010290429B
:104B800001D109690163012141610169C90708BFB8
:104B900010BD016921F00101016110BD80B5D0F89F
:104BA00000E0DEF80800D1E900C320F0770023F030
:104BB000070210434FEA331340EA0C00072BCEF8EC
:104BC00008000CD80020DFE803F005050505071DE7
:104BD000370D00BF80BD00BFBCF1050F46D10120DD
:104BE00080BD00BFD1E902020969DEF80830104338
:104BF00023F47F4340EA01201843CEF80800002048
:104C000080BD00BF88680969DEF82020DEF820300A
:104C100022F00A0223F00103CEF82030DEF818302B
:104C2000104323F0F00343EA0111CEF81810CEF838
:104C30002000002080BD00BF88680969DEF82020C0
:104C4000DEF8203022F0A00223F01003CEF820304E
:104C5000DEF8183042EA001023F4704343EA0131D1
:104C6000CEF81810CEF82000002080BDDEF820001D
:104C7000DEF8202022F00102CEF82020DEF81820F5
:104C8000096922F0F00242EA0111CEF81810CEF8BC
:104C90002000002080BD000040F27C51C2F20001E3
:104CA0008A7A00F0010002F0EF0242EA00108872F6
:104CB0007047000041F6EC20C2F200000068016875
:104CC0008A0609D4090708BF704781B04068009080
:104CD000009801B0704700BF46F62461C2F200019F
:104CE0004068B1F80C23B1F80E330132D2B29A42C7
:104CF00005D1B1F80E330133DBB2A1F80E33B1F8B0
:104D00000C330B4483F81003A1F80C237047000008
:104D100041F61420C2F20000006801688A0609D436
:104D2000090708BF704781B040680090009801B043
:104D3000704700BF46F62461C2F2000140680A884D
:104D40004B880132D2B29A4203D14B880133DBB295
:104D50004B800B880B4418710A80704741F65C2029
:104D6000C2F20000006801688A0609D4090708BF7A
:104D7000704781B040680090009801B0704700BF54
:104D800046F62461C2F200014068B1F80421B1F88E
:104D900006310132D2B29A4205D1B1F8063101335F
:104DA000DBB2A1F80631B1F804310B4483F80801F5
:104DB000A1F804217047000041F6A420C2F20000CF
:104DC000006801688A0609D4090708BF704781B0E6
:104DD00040680090009801B0704700BF46F624611B
:104DE000C2F200014068B1F80822B1F80A3201327B
:104DF000D2B29A4205D1B1F80A320133DBB2A1F83E
:104E00000A32B1F808320B4483F80C02A1F80822E8
:104E100070470000D0F8B822002A04BF0220704773
:104E200010B501EB810300EB830C5CF81C3F63B110
:104E3000D0F8C0E201EB81040EEBC404D4F820E00A
:104E4000B3FBFEF404FB1E3323B10020C2F81402AE
:104E500010BD00BF00220023CCF8002000F058FD58
:104E6000002010BDB0B5D0F8B852044600F018FCD0
:104E7000D4F8B812C5F80C0251B1D4F8BC0205F54B
:104E80000371C268D5F8040290470020B0BD00BF8E
:104E90000220B0BDB0B58121044600F04BFB0025D7
:104EA00020460121E56200F045FB20468221C4F83E
:104EB0006C5100F03FFBD4F8B802256448B1D4F837
:104EC000BC0240688047D4F8B80200F09FFFC4F8E5
:104ED000B8520020B0BD0000D0F8BC1281B110B5AE
:104EE000D0F8B84294F80002FF2807D08B6894F8F5
:104EF000012221469847FF2084F80002BDE81040B7
:104F000000207047014640F24C100A22C2F2000015
:104F10000A807047014640F2C4004322C2F20000FA
:104F20000A807047014640F208104322C2F2000096
:104F30000A807047014640F260104322C2F200002E
:104F40000A807047F0B581B00546007C40270028F4
:104F500008BF4FF400772846812102223B464024B7
:104F600000F0FCFB01262846012102223B46EE62AE
:104F700000F0F4FB2846822103220823C5F86C6167
:104F800000F0ECFB4FF407702E6400F041FFC5F811
:104F9000B802A8B10746D5F8BC02006880470026D1
:104FA000C7F81462C7F81862287CD7F804220028D2
:104FB00008BF4FF4007428460121234600F0E2FBAD
:104FC000304601B0F0BD0000D0F8B812002904BF8F
:104FD0000220704780B590F810C0D1F80422402319
:104FE0000121BCF1000F08BF4FF4007300F0CAFBB1
:104FF000002080BD00290EBF0220C0F8BC12002096
:1050000070470000D0F8B8220020C2F804127047A0
:10501000D0F8B8320020C3F80812C3F81022704745
:10502000F0B581B091F90030D0F8B842002513F006
:1050300060028DF80350ADF8005011D0202A3BD10A
:10504000CA88FAB1B3F1FF3F3CDD497884F8012208
:1050500084F80012214600F08BF8002001B0F0BD6A
:105060004A780B2A24D00A2A16D02ABB90F89C2210
:10507000032A21D16946022200F094F8002001B0F1
:10508000F0BD00BFD0F8BC02002283684878984782
:10509000002001B0F0BD00BF90F89C22032A0BD184
:1050A0000DF10301012200F07DF8002001B0F0BDF8
:1050B00090F89C22032AD0D000F04EF8022001B0D4
:1050C000F0BD00BFD0F8BC3206469D684B780F4655
:1050D00018462146A847FA883046214600F062F873
:1050E000002001B0F0BD0000D0F8B822002A04BFB3
:1050F00002207047D2F8141200294FF0010101D0AC
:105100000846704780B5C2F81412D2F81012D2F8CF
:10511000082201638BB2812100F0FAFB0021BDE877
:10512000804008467047000080B5D0F8B42252682D
:105130009047002080BD000080B513460A4600213C
:1051400000F020FB002080BD80B513460A460021F8
:1051500000F0DEFB002080BD10B58021044600F089
:10516000A9FB20460021BDE8104000F0A3BB0000D1
:1051700080B513460A460321C0F894120021C0E905
:10518000573300F0FFFA002080BD000080B50521F4
:10519000C0F8941200210022002300F0F3FA00204E
:1051A00080BD000080B513460A460221C0F8941263
:1051B0000021C0E9073300F0ABFB002080BD0000F8
:1051C00080B50421C0F8941200210022002300F0D1
:1051D0009FFB002080BD000010B540F2D454C2F205
:1051E00000040A4602A0214600F010F9204610BD36
:1051F00043444320436F6E666967000040F2A41089
:105200001222C2F200000A807047000010B540F27E
:10521000D454C2F200040A4602A0214600F0F6F877
:10522000204610BD43444320496E74657266616335
:105230006500000040F2C8100422C2F200000A809B
:105240007047000010B540F2D454C2F200040A4680
:1052500002A0214600F0DAF8204610BD53544D69F3
:1052600063726F656C656374726F6E69637300005F
:1052700010B540F2D454C2F200040A4602A02146FE
:1052800000F0C4F8204610BD4C5A204C4741532032
:10529000416E616C797A6572000000004FF2E8702F
:1052A000C1F6FF70026883684FF01A0C9B18A1F8D2
:1052B00000C000F0A680B0B54FF0370C1A0F0CEB11
:1052C00013714068B3F1204F38BF02F1300140F252
:1052D000CC12C2F20002917019014FF0000E0CEBDB
:1052E000117582F803E0C3F30364B1F1204F38BFB6
:1052F00004F13005190215710CEB117582F805E007
:10530000C3F30354B1F1204F38BF04F13005190342
:1053100095710CEB117582F807E0C3F30344B1F10A
:10532000204F38BF04F13005190415720CEB1175CC
:1053300082F809E0C3F30334B1F1204F38BF04F120
:105340003005190595720CEB117582F80BE0C3F36B
:105350000324B1F1204F38BF04F13005190615734D
:10536000C3F303140CEB1175B1F1204F4FEA037135
:1053700003F00F0382F80DE038BF04F1300503F1AC
:105380003704957382F80FE0B1F1204F38BF03F175
:105390003004010F0CEB1073147482F811E0B0F1BB
:1053A000204F38BF01F1300301010CEB11749374ED
:1053B00082F813E0C0F30363B1F1204F38BF03F16B
:1053C000300401021475C0F303530CEB1174B1F1F6
:1053D000204F4FEA003182F815E038BF03F1300466
:1053E0000CEB1173947582F817E0C0F30340B1F130
:1053F000204F38BF00F13003137682F819E0BDE882
:10540000B04040F2CC10C2F200007047002808BF44
:10541000704710B50378ABB100F1020E4FF0000CED
:105420001EF8013C93B19EF800309BB19EF801300C
:10543000A3B19EF802300CF1040C002B0EF1040E07
:10544000EED10DE04FF0000C0AE000BF4CF0010C73
:1054500006E000BF4CF0020C02E000BF4CF0030C71
:105460005FFA8CFC022303EB4C03138003220B70C6
:105470004A7090F800E0BEF1000F2DD002300222F9
:105480004FF0000CD3B2CC1801F803E084F801C04F
:1054900010F8013C03B3941CE4B201EB040E0B556D
:1054A0008EF801C00378BBB1141DE4B201EB040E09
:1054B0000B558EF801C0437873B1941DE4B201EB33
:1054C000040E0B558EF801C090F802E00832BEF1D0
:1054D000000F00F10400D5D1BDE810407047000076
:1054E000002804BF02207047D0F8B432002B1CBF44
:1054F0000023C0F8B432002918BFC0F8B01280B53C
:10550000012180F89C12027000F0CEF8002080BDCE
:1055100080B5D0F8C002FCF7B1FF40F200220223B0
:10552000C100C0F20122042838BF22FA01F3D8B228
:1055300080BD000080B5D0F8C002FCF777FF40F2D4
:1055400000220223C100C0F20122042838BF22FA3F
:1055500001F3D8B280BD0000B0B569B1D0F8B42273
:1055600052693AB190F89C32032B03D19047002145
:105570000846B0BD0220B0BDD0F89412002918BF73
:1055800004290FD18021044600F094F9204690F8B8
:10559000A01201294FF00001EAD180F8A0120846BC
:1055A000B0BD00BF0229F2D1D0E908318B420FD93A
:1055B000591A8BB2016211461A460446FFF7C4FD20
:1055C000204600210022002300F0DCF8DEE700BFC7
:1055D000C2698A4212D3B2FBF1F303FB112169B90C
:1055E000D0F898128A4209D20021002204460025F0
:1055F000FFF7AAFDC4F89852E2E700BFD0F8B41252
:10560000C96831B190F89C22032A02D10446884728
:1056100020468021044600F04DF92046FFF7B6FDF4
:10562000B4E7000010B559B1D0F8B42292692AB19C
:1056300090F89C32032B01D190472EE0022010BD40
:10564000D0F894120024052912D0032926D1D0E9DC
:1056500058318B4214D95B1AC0F860318B4238BF85
:1056600019468BB211461A46FFF766FD15E000BFDA
:105670000021C0F8944200F01DF9204610BD00BF83
:10568000D0F8B412096931B190F89C22032A02D1F2
:10569000044688472046FFF793FD0024204610BDAE
:1056A000D0F8C002FCF71ABF10B5044641F2F4600E
:1056B00045F60041C2F20000C4F200010160082179
:1056C0000171022181710021C0F8D442C4F8C002E6
:1056D00041810173FDF744FC002818BFFCF768F90D
:1056E000D4F8C002002100221823FCF761FED4F890
:1056F000C002802100225823FCF75AFED4F8C002D1
:1057000081210022C023FCF753FED4F8C0020121FE
:1057100000224FF48873FCF74BFED4F8C0028221BC
:1057200000224FF48073FCF743FE002010BD000000
:10573000D0F8C00201F07F034AB203EB830301EB10
:10574000810100EBC30300EBC10000F5A970002A42
:1057500048BF03F1120000787047000080B59446FE
:10576000D0F8C0021A466346FCF7C2FE40F200229F
:105770000223C100C0F20122042838BF22FA01F33B
:10578000D8B280BD80B5D0F8C002FCF7DFFE40F291
:1057900000220223C100C0F20122042838BF22FAED
:1057A00001F3D8B280BD0000F0B581B00021002225
:1057B0004023044600254026FFF7D0FF012720465E
:1057C000802100224023C4F85871C4F86461FFF7B7
:1057D000C5FFD4F8B812A761666284F89C72C4F859
:1057E00094526560C4F8A45229B1D4F8B41220468A
:1057F0004A6800219047002001B0F0BD90F89C124B
:10580000042904BF90F89D1280F89C120020704774
:1058100090F89C12032907D1D0F8B412C96919B1C4
:1058200080B58847BDE880400020704702460020D0
:105830001174704780B5D0F8C002FDF7F1FC40F25A
:1058400000220223C100C0F20122042838BF22FA3C
:1058500001F3D8B280BD0000B0B500F52A7405464A
:10586000204600F067F895F8A8122846B5F8AE5221
:1058700001F01F020123022AC0E9A5350ED0012A3A
:1058800006D08AB9214600F07DF80020B0BD00BFE7
:10589000214600F091FA0020B0BD00BF214600F083
:1058A000E7F90020B0BD00BF01F0800100F002F870
:1058B0000020B0BD80B5D0F8C002FCF761FE40F218
:1058C00000220223C100C0F20122042838BF22FABC
:1058D00001F3D8B280BD000080B5D0F8C002FDF75A
:1058E000BBFC40F200220223C100C0F201220428C6
:1058F00038BF22FA01F3D8B280BD0000014690F80B
:105900009C02042281F89D02002081F89C227047AD
:1059100080B5D0F8C002FCF769FE40F200220223F5
:10592000C100C0F20122042838BF22FA01F3D8B224
:1059300080BD00000A7802704A7842704A8842802E
:105940008A888280C988C1807047000000290EBF04
:105950000220C0F8B412002070470000D0F8B42232
:10596000002A04BF0220704780B5126890470028C3
:1059700018BF0120400080BD80B5FFF7ADFF0020BB
:1059800080BD000070B582B00A78C2F34112531E88
:10599000022B07D2D0F8B42292689047002002B0C0
:1059A00070BD00BF002A40F057814A78092A00F2F2
:1059B0005381DFE812F00B00350051015B0051010B
:1059C00067008B0051012500410000BF90F89C2228
:1059D000013A022A00F24081C988022940F03C8144
:1059E000D0F8A4120322002908BF0122014641F881
:1059F0000C2F0222FFF7D6FB002002B070BD00BFC3
:105A0000C988012940F0288190F89C124A1E022A78
:105A100080F074800022014641F8082F72E000BF38
:105A200090F89C22013A022A00F216814988012945
:105A3000B4D100211FE000BF4A8840F2D156D1B254
:105A4000C2F200060229327080F0068190F89C2292
:105A5000032A5DD0022A40F08380002900F0C5802F
:105A600003220446416080F89C22B7E0498801295E
:105A70007FF494AF0121C0F8A412FFF7A1FB00202E
:105A800002B070BD8A88002A40F0E680CA88002AE9
:105A900040F0E2804D887F2D00F2DE8090F89C126D
:105AA000032900F0D980E9B280F89E520446FFF73E
:105AB000C1FE20462646FFF783FB002D0CBF0120C8
:105AC000022086F89C02002002B070BD4A884FF088
:105AD000FF3303EB12230026062BADF8066000F21D
