:020000040800F2
:1000000000000120DDBC00082517000829170008A2
:100010006117000899170008D117000800000000B8
:1000200000000000000000000000000009180008A7
:100030000D1800080000000011180008151800082D
:1000400025BD000825BD000825BD000825BD000808
:1000500025BD000825BD000825BD000825BD0008F8
:1000600025BD000825BD000825BD000825BD0008E8
:1000700025BD000825BD000825BD000825BD0008D8
:1000800025BD000825BD000825BD000825BD0008C8
:100090002518000825BD000825BD000825BD00085D
:1000A00025BD000825BD000825BD000825BD0008A8
:1000B00025BD000825BD000825BD000825BD000898
:1000C00025BD000825BD000825BD000825BD000888
:1000D00025BD0008E11B0008311C00088D1C00082C
:1000E00025BD000825BD000825BD000825BD000868
:1000F00025BD000825BD000825BD000825BD000858
:1001000025BD000825BD000825BD000825BD000847
:10011000E91C000825BD000825BD000825BD000814
:1001200025BD000825BD000825BD000825BD000827
:1001300000000000000000000000000000000000BF
:1001400000000000000000000000000000000000AF
:10015000000000000000000000000000000000009F
:10016000000000000000000000000000000000008F
:10017000000000000000000000000000000000007F
:10018000000000000000000000000000000000006F
:10019000000000000000000000000000000000005F
:1001A000000000000000000000000000000000004F
:1001B000000000000000000000000000000000003F
:1001C000000000000000000000000000000000002F
:1001D000000000000000000000000000000000001F
:0401E0005FF8E0F1F3
:1001E80010B5054C237833B9044B13B10448AFF369
:1001F80000800123237010BD60040020000000006F
:10020800CCEC000808B5034B1BB103490348AFF316
:10021800008008BD0000000064040020CCEC000849
:10022800034613F8012B002AFBD1181A013870472E
:1002380081F0004102E000BF83F0004330B54FEA8F
:1002480041044FEA430594EA050F08BF90EA020FFC
:100258001FBF54EA000C55EA020C7FEA645C7FEA8F
:10026800655C00F0E2804FEA5454D4EB5555B8BFB2
:100278006D420CDD2C4480EA020281EA030382EA23
:10028800000083EA010180EA020281EA0303362DB5
:1002980088BF30BD11F0004F4FEA01314FF4801C88
:1002A8004CEA113102D0404261EB410113F0004F9A
:1002B8004FEA03334CEA133302D0524263EB430351
:1002C80094EA050F00F0A780A4F10104D5F1200EEF
:1002D8000DDB02FA0EFC22FA05F2801841F100014A
:1002E80003FA0EF2801843FA05F359410EE0A5F11E
:1002F80020050EF1200E012A03FA0EFC28BF4CF04F
:10030800020C43FA05F3C01851EBE37101F0004504
:1003180007D54FF0000EDCF1000C7EEB00006EEB11
:100328000101B1F5801F1BD3B1F5001F0CD349089B
:100338005FEA30004FEA3C0C04F101044FEA4452F2
:1003480012F5800F80F09A80BCF1004F08BF5FEA79
:10035800500C50F1000041EB045141EA050130BD59
:100368005FEA4C0C404141EB0101013C28BFB1F56B
:10037800801FE9D291F0000F04BF01460020B1FAB6
:1003880081F308BF2033A3F10B03B3F120020CDA89
:100398000C3208DD02F1140CC2F10C0201FA0CF067
:1003A80021FA02F10CE002F11402D8BFC2F1200CCC
:1003B80001FA02F120FA0CFCDCBF41EA0C01904082
:1003C800E41AA2BF01EB0451294330BD6FEA0404CB
:1003D8001F3C1CDA0C340EDC04F11404C4F12002B6
:1003E80020FA04F001FA02F340EA030021FA04F3C8
:1003F80045EA030130BDC4F10C04C4F1200220FA1F
:1004080002F001FA04F340EA0300294630BD21FA5C
:1004180004F0294630BD94F0000F83F4801306BF22
:1004280081F480110134013D4EE77FEA645C18BF16
:100438007FEA655C29D094EA050F08BF90EA020FAD
:1004480005D054EA000C04BF1946104630BD91EAA5
:10045800030F1EBF0021002030BD5FEA545C05D1A8
:100468004000494128BF41F0004130BD14F58004E7
:100478003CBF01F5801130BD01F0004545F0FE415B
:1004880041F470014FF0000030BD7FEA645C1ABF90
:10049800194610467FEA655C1CBF0B46024650EAC7
:1004A800013406BF52EA033591EA030F41F40021F3
:1004B80030BD00BF90F0000F04BF0021704730B579
:1004C8004FF4806404F132044FF000054FF000014E
:1004D80050E700BF90F0000F04BF0021704730B50F
:1004E8004FF4806404F1320410F0004548BF4042E4
:1004F8004FF000013EE700BF42004FEAE2014FEA39
:1005080031014FEA02701FBF12F07F4393F07F4F13
:1005180081F06051704732F07F4208BF704793F016
:100528007F4F04BF41F40021704730B54FF4607429
:1005380001F0004521F000411CE700BF50EA01022C
:1005480008BF704730B54FF000050AE050EA0102D5
:1005580008BF704730B511F0004502D5404261EB45
:1005680041014FF4806404F132045FEA915C3FF486
:10057800D8AE4FF003025FEADC0C18BF03325FEA23
:10058800DC0C18BF033202EBDC02C2F1200300FAD4
:1005980003FC20FA02F001FA03FE40EA0E0021FAF9
:1005A80002F11444BDE600BF70B54FF0FF0C4CF4E7
:1005B800E06C1CEA11541DBF1CEA135594EA0C0F99
:1005C80095EA0C0F00F0DEF82C4481EA030621EAD4
:1005D8004C5123EA4C5350EA013518BF52EA03350F
:1005E80041F4801143F4801338D0A0FB02CE4FF0C1
:1005F8000005E1FB02E506F00042E0FB03E54FF0F1
:100608000006E1FB03569CF0000F18BF4EF0010EE8
:10061800A4F1FF04B6F5007F64F5407404D25FEAE4
:100628004E0E6D4146EB060642EAC62141EA555197
:100638004FEAC52040EA5E504FEACE2EB4F1FD0CD9
:1006480088BFBCF5E06F1ED8BEF1004F08BF5FEA57
:10065800500E50F1000041EB045170BD06F0004609
:1006680046EA010140EA020081EA0301B4EB5C04B6
:10067800C2BFD4EB0C0541EA045170BD41F48011AE
:100688004FF0000E013C00F3AB8014F1360FDEBFD3
:10069800002001F0004170BDC4F10004203C35DAAF
:1006A8000C341BDC04F11404C4F1200500FA05F332
:1006B80020FA04F001FA05F240EA020001F00042D3
:1006C80021F0004110EBD37021FA04F642EB060149
:1006D8005EEA430E08BF20EAD37070BDC4F10C0473
:1006E800C4F1200500FA04F320FA05F001FA04F237
:1006F80040EA020001F0004110EBD37041F1000123
:100708005EEA430E08BF20EAD37070BDC4F120052D
:1007180000FA05F24EEA020E20FA04F301FA05F295
:1007280043EA020321FA04F001F0004121FA04F23D
:1007380020EA020000EBD3705EEA430E08BF20EA0D
:10074800D37070BD94F0000F0FD101F00046400047
:1007580041EB010111F4801F08BF013CF7D041EAC9
:10076800060195F0000F18BF704703F000465200CD
:1007780043EB030313F4801F08BF013DF7D043EA9E
:100788000603704794EA0C0F0CEA135518BF95EA54
:100798000C0F0CD050EA410618BF52EA4306D1D1DB
:1007A80081EA030101F000414FF0000070BD50EAFA
:1007B800410606BF1046194652EA430619D094EA84
:1007C8000C0F02D150EA013613D195EA0C0F05D16E
:1007D80052EA03361CBF104619460AD181EA0301C2
:1007E80001F0004141F0FE4141F470014FF000007A
:1007F80070BD41F0FE4141F4780170BD70B54FF015
:10080800FF0C4CF4E06C1CEA11541DBF1CEA135594
:1008180094EA0C0F95EA0C0F00F0A7F8A4EB050476
:1008280081EA030E52EA03354FEA013100F088806D
:100838004FEA03334FF0805545EA131343EA126336
:100848004FEA022245EA111545EA10654FEA0026EB
:100858000EF000419D4208BF964244F1FD0404F5A4
:10086800407402D25B084FEA3202B61A65EB030500
:100878005B084FEA32024FF480104FF4002CB6EBBD
:10088800020E75EB030E22BFB61A754640EA0C003D
:100898005B084FEA3202B6EB020E75EB030E22BF7D
:1008A800B61A754640EA5C005B084FEA3202B6EBBE
:1008B800020E75EB030E22BFB61A754640EA9C007D
:1008C8005B084FEA3202B6EB020E75EB030E22BF4D
:1008D800B61A754640EADC0055EA060E18D04FEA0B
:1008E800051545EA16754FEA06164FEAC30343EAAB
:1008F80052734FEAC2025FEA1C1CC0D111F4801F78
:100908000BD141EA00014FF000004FF0004CB6E770
:1009180011F4801F04BF01430020B4F1FD0C88BF0F
:10092800BCF5E06F3FF6AFAEB5EB030C04BFB6EB1A
:10093800020C5FEA500C50F1000041EB045170BD0D
:100948000EF0004E4EEA113114EB5C04C2BFD4EB3A
:100958000C0541EA045170BD41F480114FF0000EBE
:10096800013C90E645EA060E8DE60CEA135594EA3A
:100978000C0F08BF95EA0C0F3FF43BAF94EA0C0F3D
:100988000AD150EA01347FF434AF95EA0C0F7FF4B2
:1009980025AF104619462CE795EA0C0F06D152EA06
:1009A80003353FF4FDAE1046194622E750EA4106EA
:1009B80018BF52EA43067FF4C5AE50EA41047FF4FB
:1009C8000DAF52EA43057FF4EBAE12E74FF0FF3C60
:1009D80006E000BF4FF0010C02E000BF4FF0010C31
:1009E8004DF804CD4FEA410C7FEA6C5C4FEA430CAA
:1009F80018BF7FEA6C5C1BD001B050EA410C0CBFF9
:100A080052EA430C91EA030F02BF90EA020F00205A
:100A1800704710F1000F91EA030F58BF994208BFC1
:100A280090422CBFD8176FEAE37040F0010070477E
:100A38004FEA410C7FEA6C5C02D150EA013C07D1D5
:100A48004FEA430C7FEA6C5CD6D152EA033CD3D020
:100A58005DF8040B704700BF8446104662468C461A
:100A68001946634600E000BF01B5FFF7B7FF00284D
:100A780048BF10F1000F01BD4DF808EDFFF7F4FF76
:100A88000CBF012000205DF808FB00BF4DF808ED01
:100A9800FFF7EAFF34BF012000205DF808FB00BF24
:100AA8004DF808EDFFF7E0FF94BF012000205DF846
:100AB80008FB00BF4DF808EDFFF7CEFF94BF0120FB
:100AC80000205DF808FB00BF4DF808EDFFF7C4FFF4
:100AD80034BF012000205DF808FB00BF4FEA410C3D
:100AE8007FEA6C5C02D150EA013C0AD14FEA430C20
:100AF8007FEA6C5C02D152EA033C02D14FF000005D
:100B080070474FF0010070474FEA410212F500129A
:100B180015D211D56FF47873B3EB625212D94FEA3C
:100B2800C12343F0004343EA505311F0004F23FA26
:100B380002F018BF404270474FF00000704750EA7B
:100B4800013005D111F0004008BF6FF00040704738
:100B58004FF00000704700BF4FEA4102B2F1E04396
:100B680024BFB3F5001CDCF1FE5C0DD901F0004C8C
:100B78004FEAC0024CEA5070B2F1004F40EB8300DC
:100B880008BF20F00100704711F0804F21D113F108
:100B98003872BCBF01F00040704741F480114FEA41
:100BA8005252C2F11802C2F1200C10FA0CF320FACA
:100BB80002F018BF40F001004FEAC1234FEAD323E7
:100BC80003FA0CFC40EA0C0023FA02F34FEA430351
:100BD800CCE77FEA625307D150EA01331EBF4FF0DA
:100BE800FE4040F44000704701F0004040F0FE40F5
:100BF80040F40000704700BF80F0004002E000BFF2
:100C080081F0004142001FBF5FEA410392EA030FEF
:100C18007FEA226C7FEA236C6AD04FEA1262D2EB39
:100C28001363C1BFD218414048404140B8BF5B423E
:100C3800192B88BF704710F0004F40F4000020F0D7
:100C48007F4018BF404211F0004F41F4000121F0ED
:100C58007F4118BF494292EA030F3FD0A2F1010237
:100C680041FA03FC10EB0C00C3F1200301FA03F175
:100C780000F0004302D5494260EB4000B0F5000F98
:100C880013D3B0F1807F06D340084FEA310102F157
:100C98000102FE2A51D2B1F1004F40EBC25008BF09
:100CA80020F0010040EA03007047490040EB0000D3
:100CB800013A28BFB0F5000FEDD2B0FA80FCACF1D4
:100CC800080CB2EB0C0200FA0CF0AABF00EBC25001
:100CD80052421843BCBFD0401843704792F0000FEF
:100CE80081F4000106BF80F400000132013BB5E742
:100CF8004FEA41037FEA226C18BF7FEA236C21D0B8
:100D080092EA030F04D092F0000F08BF084670471C
:100D180090EA010F1CBF0020704712F07F4F04D1EA
:100D2800400028BF40F00040704712F100723CBFFD
:100D380000F50000704700F0004343F0FE4040F427
:100D4800000070477FEA226216BF08467FEA2363E5
:100D58000146420206BF5FEA412390EA010F40F4D0
:100D6800800070474FF0000304E000BF10F000431C
:100D780048BF40425FEA000C08BF704743F0964303
:100D880001464FF000001CE050EA010208BF70471E
:100D98004FF000030AE000BF50EA010208BF7047A5
:100DA80011F0004302D5404261EB41015FEA010CBA
:100DB80002BF84460146002043F0B64308BFA3F1B2
:100DC8008053A3F50003BCFA8CF2083AA3EBC25394
:100DD80010DB01FA02FC634400FA02FCC2F12002B3
:100DE800BCF1004F20FA02F243EB020008BF20F0EA
:100DF8000100704702F1200201FA02FCC2F1200250
:100E080050EA4C0021FA02F243EB020008BF20EA44
:100E1800DC7070474FF0FF0C1CEAD0521EBF1CEA72
:100E2800D15392EA0C0F93EA0C0F6FD01A4480EA60
:100E3800010C400218BF5FEA41211ED04FF0006349
:100E480043EA501043EA5111A0FB01310CF0004075
:100E5800B1F5000F3EBF490041EAD3715B0040EA9B
:100E6800010062F17F02FD2A1DD8B3F1004F40EB6B
:100E7800C25008BF20F00100704790F0000F0CF03E
:100E8800004C08BF49024CEA502040EA51207F3A02
:100E9800C2BFD2F1FF0340EAC250704740F40000DD
:100EA8004FF00003013A5DDC12F1190FDCBF00F0CE
:100EB80000407047C2F10002410021FA02F1C2F17C
:100EC800200200FA02FC5FEA310040F1000053EA18
:100ED8004C0308BF20EADC70704792F0000F00F066
:100EE800004C02BF400010F4000F013AF9D040EA6C
:100EF8000C0093F0000F01F0004C02BF490011F400
:100F0800000F013BF9D041EA0C018FE70CEAD153FD
:100F180092EA0C0F18BF93EA0C0F0AD030F0004C7D
:100F280018BF31F0004CD8D180EA010000F0004031
:100F3800704790F0000F17BF90F0004F084691F0EF
:100F4800000F91F0004F14D092EA0C0F01D1420229
:100F58000FD193EA0C0F03D14B0218BF084608D1F2
:100F680080EA010000F0004040F0FE4040F400003C
:100F7800704740F0FE4040F4400070474FF0FF0CCF
:100F88001CEAD0521EBF1CEAD15392EA0C0F93EA16
:100F98000C0F69D0A2EB030280EA010C49024FEA68
:100FA800402037D04FF0805343EA111143EA101321
:100FB8000CF000408B4238BF5B0042F17D024FF4D9
:100FC800000C8B4224BF5B1A40EA0C00B3EB510FB4
:100FD80024BFA3EB510340EA5C00B3EB910F24BF9D
:100FE800A3EB910340EA9C00B3EBD10F24BFA3EB22
:100FF800D10340EADC001B0118BF5FEA1C1CE0D1EA
:10100800FD2A3FF650AF8B4240EBC25008BF20F09C
:10101800010070470CF0004C4CEA50207F32C2BFF0
:10102800D2F1FF0340EAC250704740F400004FF08D
:101038000003013A37E792F0000F00F0004C02BFBE
:10104800400010F4000F013AF9D040EA0C0093F088
:10105800000F01F0004C02BF490011F4000F013BE2
:10106800F9D041EA0C0195E70CEAD15392EA0C0F4A
:1010780008D142027FF47DAF93EA0C0F7FF470AF82
:10108800084676E793EA0C0F04D14B023FF44CAFC5
:1010980008466EE730F0004C18BF31F0004CCAD15A
:1010A80030F000427FF45CAF31F000437FF43CAF96
:1010B8005FE700BF4FF0FF3C06E000BF4FF0010CB8
:1010C80002E000BF4FF0010C4DF804CD4FEA40029A
:1010D8004FEA41037FEA226C18BF7FEA236C11D0E4
:1010E80001B052EA530C18BF90EA010F58BFB2EB97
:1010F800030088BFC81738BF6FEAE17018BF40F017
:10110800010070477FEA226C02D15FEA402C05D1CA
:101118007FEA236CE4D15FEA412CE1D05DF8040B4F
:10112800704700BF844608466146FFE70FB5FFF7E2
:10113800C9FF002848BF10F1000F0FBD4DF808ED9A
:10114800FFF7F4FF0CBF012000205DF808FB00BF8B
:101158004DF808EDFFF7EAFF34BF012000205DF8E5
:1011680008FB00BF4DF808EDFFF7E0FF94BF012032
:1011780000205DF808FB00BF4DF808EDFFF7D2FF2F
:1011880094BF012000205DF808FB00BF4DF808ED72
:10119800FFF7C8FF34BF012000205DF808FB00BF3F
:1011A80008B572B600220620114609F07FF8FEE75E
:1011B800002330B5012097B04FF480310124022577
:1011C8004FF48012CDE91133CDE90233CDE9043370
:1011D800CDE90733CDE909330E93019306930F93B5
:1011E8000B934FF48033CDE90C010CA8CDE91432F0
:1011F8001094139503F0F8F8C0B903464FF48062D1
:10120800039305930F23214601A8029504920193A5
:1012180003F002FB50B910224FF4800306A806928F
:101228000B9303F0BDFB08B917B030BDFFF7B8FF4B
:101238002DE9F0430024B9B003F0A0F8FFF7B8FF98
:101248001021CDE92844CDE92A44B84B02259A69F2
:1012580001260A439A6110279A69B5480A40009204
:10126800009A9A6942F020029A619A6902F0200273
:101278000192019A9A6942F004029A619A6902F00D
:1012880004020292029A9A6942F008029A619B69E2
:10129800224603F008030393039B03F065FD2246EF
:1012A8003021A44803F060FD22464FF20301A24812
:1012B80003F05AFD9E4828A92B95CDE928762A9453
:1012C80003F0F0FB30239B4828A9CDE92836CDE967
:1012D8002A4503F0E7FB4FF20303CDE92A45964878
:1012E800964D28A92893299603F0DCFB944B2846B1
:1012F800CDE908442B6003F0E1FE002840F0B481FA
:101308002846002402253A4608A9CDE9084503F0F5
:101318003DFF0446002840F0A7814FF6FF76894D2F
:101328000146CDE90F00CDE92100CDE92300CDE943
:1013380025000E900690209011900790202228A852
:101348000BF00CFB804B2846C5E90144C5E9036452
:10135800C5E905442B6004F0DFF9002840F08481DA
:101368004FF4805728460EA90E9704F0ABF80028D2
:1013780040F07A81284604F0FDF9002840F0748195
:101388004FF000084FF00009284606A9CDE9068964
:1013980004F0C0FA0246002840F066816023CDE9D7
:1013A80021002390269020A92846CDE9248920935E
:1013B80004F042FA002840F0578100224FF400530D
:1013C800CDE92800CDE92A002F9028A92846CDE9A3
:1013D8002C2304F0DDFA0446002840F04581284615
:1013E80000F09EFA4FF08043584DCDE90B44284653
:1013F800C5E90144CDE91344CDE91544CDE91944C3
:10140800CDE91B44CDE91D44EE602B600A9412948B
:10141800049418942C61AC610D94059404F07CF943
:10142800002840F0218128460AA90A9704F04AF8C2
:10143800002840F01981284604F09CF9002840F063
:10144800138144464D46414812A9CDE9124504F09E
:10145800EFF8002840F008813C4804A9CDE904458C
:1014680004F058FA0246002840F0FE806024002567
:101478001A901C9018A93548CDE9184504F0DCF9F4
:10148800002840F0F1800422304818A904F0D4F96B
:101498000546002840F0E8802C4800F041FA4FF457
:1014A80016530C242A48C0E901352A4BC0E90355D4
:1014B8000360C0E90545C56104F0DEFA034600286B
:1014C80040F0D2802448254AC0E9033302604FF433
:1014D8009642C0E905438360C361426004F0CCFAD8
:1014E8000346002840F0C0804FF4E1351C481D4AEF
:1014F800C0E90333C0E905438360C3610260456006
:1015080004F0BAFA0346002840F0AE801648C0E955
:101518000153C0E90333C0E90543C361134B0360BA
:1015280004F0AAFA002840F09F8021E00010024051
:101538000008014000100140000C01403006002066
:1015480000740040E8050020002C0140A0050020A0
:1015580058050020004C00401005002000380140CC
:10156800C8040020004400408004002000480040D7
:1015780000F0E8FC06F0A6F906F0B2FB032000F044
:101588000BFB05F0A5FE0AF04BFB00286CD105F01B
:1015980055FF05F00DFF0021544805F001F907F04B
:1015A80093FF074600285FD1012009F023FF384642
:1015B80008F0BAFD08F0B6FD03464D4D4FF47A70B9
:1015C8002B6002F0FFFE642314224A49022000F037
:1015D800F3FB4FF47A7002F0F5FE642308224649C3
:1015E800022000F0E9FB642005F0FCFE642002F014
:1015F800E9FE64230A224149022000F0DDFB642051
:1016080002F0E0FE08F0EAFC044678BB64231422EA
:1016180002203B4900F0D0FB42F2107408F082FD32
:101628002B68C01AA042F9D908F070FD04460028BA
:101638003CD1032464230A223249022000F0BCFB77
:10164800642002F0BFFE64230A222F49022000F022
:10165800B3FB642002F0B6FE64200AF011FB032CF1
:1016680021D107F0CBFFFCE7FFF79AFD274AC0F32B
:10167800071600F00F052649965D555D6423142270
:101688008E74CD74022000F097FB22493B46224617
:1016980028A80BF097F828A8FEF7C2FD014628A84D
:1016A80089B200F0ADFD07F0AFFFFCE71A4BC0F3BD
:1016B800071217499A5C8A7400F00F029A5C02209C
:1016C800CA746423142200F077FB224600231149D0
:1016D80028A80BF077F828A8FEF7A2FD014628A84D
:1016E80089B200F08DFD0424A4E700BF61B00008B2
:1016F8007C040020B4F7000874F7000894F7000889
:10170800A0F7000888F700087CF700089CF6000896
:1017180088010020F0EC00089CF60008FEE700BFF6
:101728000C4B1C605D609E60DF60C3F81080C3F8DE
:101738001490C3F818A0C3F81CB01EF0040F0CBF17
:10174800EFF30881EFF309817246022008F0AEFD3D
:10175800FEE70000187800200C4B1C605D609E605E
:10176800DF60C3F81080C3F81490C3F818A0C3F85A
:101778001CB01EF0040F0CBFEFF30881EFF30981D2
:101788007246032008F092FDFEE70000187800205A
:101798000C4B1C605D609E60DF60C3F81080C3F86E
:1017A8001490C3F818A0C3F81CB01EF0040F0CBFA7
:1017B800EFF30881EFF309817246042008F076FD03
:1017C800FEE70000187800200C4B1C605D609E60EE
:1017D800DF60C3F81080C3F81490C3F818A0C3F8EA
:1017E8001CB01EF0040F0CBFEFF30881EFF3098162
:1017F8007246052008F05AFDFEE700001878002020
:10180800704700BF704700BF704700BF08B507F0BA
:1018180089FEBDE8084002F0C3BD00BF014800F0E2
:10182800CDBE00BF081A00200E4B82B09A690E493F
:1018380042F001029A619A6902F001020092009A4C
:10184800DA6942F08052DA61DB6903F08053019370
:10185800019B4B6823F0E06343F000734B6002B0D8
:10186800704700BF0010024000000140002330B55F
:10187800154A016887B09142CDE90233CDE90433B6
:1018880001D007B030BD2024032503F1804303F5C0
:101898000433DA690D4842F00052DA61DA6902A9C4
:1018A80002F000520092009A9A6942F004029A618A
:1018B8009B69CDE9024503F004030193019B03F002
:1018C800F1F807B030BD00BF0074004000080140C7
:1018D800114A036882B0934211D0B3F1804F01D00E
:1018E80002B0704703F50433DA6942F00102DA61A5
:1018F800DB6903F001030193019B02B07047074BBA
:101908009A6942F400629A619B6903F40063009348
:10191800009B02B0704700BF002C0140001002403D
:10192800002370B51E49026886B08A42CDE90233A9
:10193800CDE9043304D0B2F1804F1BD006B070BD9E
:101948004FF480740225022603F1804303F5043323
:101958009A69144842F004029A619B6902A903F04B
:1019680004030093CDE90245009B059603F09AF81D
:1019780006B070BD0324022502260B4B09489A695C
:1019880002A942F004029A619B69CDE9024503F07D
:1019980004030193019B059603F084F806B070BD1B
:1019A800002C01400008014000100240D0B500247E
:1019B8006F4A03688CB09342CDE90844CDE90A44E4
:1019C8003CD06C4A93426BD06B4A934200F09F80A4
:1019D8006A4A934201D00CB0D0BD694B4FF480667F
:1019E800DA69022742F48022DA61DA6908A902F486
:1019F80080220692069A9A69624842F008029A6121
:101A08009B69CDE9086703F0080307930323079A46
:101A18000B9303F047F800234FF4006208A95948D4
:101A2800CDE908230A9403F03DF8224621462720F1
:101A380003F0B0F9272003F0E9F9CCE7504B4FF455
:101A48008066DA69022742F40022DA61DA6908A9B5
:101A580002F400220092009A9A694B4842F0100260
:101A68009A619B69CDE9086703F01003019303238A
:101A7800019A0B9303F016F800234FF4006208A9AB
:101A88004148CDE908230A9403F00CF82246214680
:101A9800342003F07FF9342003F0B8F90CB0D0BD3E
:101AA800374B40269A69022742F480429A619A6924
:101AB80008A902F480420292029A9A69314842F0D7
:101AC80008029A619B69CDE9086703F0080303934C
:101AD8000323039A0B9302F0E5FF8022002308A951
:101AE8002848CDE908230A9402F0DCFF274A21465A
:101AF8005368252043F0E06343F004035360224613
:101B080003F048F9252003F081F90CB0D0BD1C4B37
:101B18000426DA69022742F40032DA61DA6908A990
:101B280002F400320492049A9A69194842F00402B5
:101B38009A619B69CDE9086703F0040305930323C1
:101B4800059A0B9302F0AEFF0023082208A910485B
:101B5800CDE908230A9402F0A5FF22462146262053
:101B680003F018F9262003F051F90CB0D0BD00BFDE
:101B7800004C00400038014000440040004800404C
:101B880000100240000C014000100140000001401C
:101B980000080140704700BF03280DD8DFE800F0B7
:101BA800110F0D02084B1B68DA6842F02002DA6058
:101BB8005A6942F001025A617047044BF3E7044B3B
:101BC800F1E7044BEFE700BF580500208004002030
:101BD800C804002010050020114B1A6813689906E4
:101BE80008D41B0705D0536882B00193019B02B04B
:101BF800704770470B4B51681A8858880132D2B227
:101C080080B28242C9B205D018881A8082B21344C1
:101C18001971704758880130C0B25880F4E700BF86
:101C28001005002044060020144B1A681368990612
:101C380008D41B0705D0536882B00193019B02B0FA
:101C4800704770470E4B5168B3F80421B3F806018A
:101C58000132D2B280B28242C9B208D0B3F80401CC
:101C6800A3F8042182B2134483F808117047B3F82B
:101C780006010130C0B2A3F80601EFE7C80400204E
:101C880044060020144B1A681368990608D41B07E9
:101C980005D0536882B00193019B02B0704770472A
:101CA8000E4B5168B3F80822B3F80A020132D2B2D7
:101CB80080B28242C9B208D0B3F80802A3F8082259
:101CC80082B2134483F80C127047B3F80A02013049
:101CD800C0B2A3F80A02EFE78004002044060020FF
:101CE800144B1A681368990608D41B0705D0536863
:101CF80082B00193019B02B0704770470E4B516848
:101D0800B3F80C23B3F80E030132D2B280B2824288
:101D1800C9B208D0B3F80C03A3F80C2382B2134459
:101D280083F810137047B3F80E030130C0B2A3F85C
:101D38000E03EFE75805002044060020032837D893
:101D4800B1B3AAB370B5EFF3108572B6194E00EBB4
:101D5800801006EB80034FEA800C5C8836F80C0094
:101D6800A4B280B284424FF000001ED04C1E01E0A5
:101D780082421AD0B3F802C0B3F802E01FFA8CFC12
:101D88000EF1010E5FFA8EFEA3F802E05988B3F84F
:101D980000E09C449CF8046089B21FFA8EFC013074
:101DA800614504F8016F80B2E2D185F3108870BDF7
:101DB8000020704744060020A1B12AB1032813D897
:101DC800DFE800F0070A0D0410467047074803F0E3
:101DD80087BE074803F084BE064803F081BE064864
:101DE80003F07EBE08467047012070475805002062
:101DF80010050020C804002080040020F0B5013937
:101E0800C9B2072993B002D80328054603D901248B
:101E1800204613B0F0BD184B53F82060002EF6D0C2
:101E2800164B53F82130EFF3108772B630467360C3
:101E380003F022FE044648B93268D36843F0200311
:101E4800D3603268536943F00103536187F3108804
:101E580073680B4A4021009302A86B1C0AF07CFCB3
:101E680002A8FEF7DDF9014602A889B200F0C8F918
:101E7800204613B0F0BD00BFE8F60008C8F6000819
:101E88000CED000808B50AF0BBFD092203461A60EC
:101E98004FF0FF3008BD00BF08B521B14FF4005323
:101EA80000204B6008BD0AF0ABFD162203461A60FD
:101EB8004FF0FF3008BD00BF012070470120704778
:101EC80008B50AF09DFD162203461A604FF0FF3050
:101ED80008BD00BF08B50AF093FD1D2203461A602D
:101EE8004FF0FF3008BD00BF002070471046704714
:101EF80072B6FEE708B5104A0346106888B1002B91
:101F080000EB030104DD0D4B99420ED8116008BDAA
:101F1800FCD00B4B9942F9D20AF072FD16230360EC
:101F280007E0074908461160E9E70AF069FD0C2354
:101F380003604FF0FF3008BD540A00200000012064
:101F4800E881002008B500221749184803F038FE38
:101F580070B91749154803F049FE88B9154913485F
:101F680004F088FBA0B9114803F048FEB8B908BDD1
:101F7800FFF716F90E490D4803F038FE0028EDD09A
:101F8800FFF70EF90B49094804F074FB0028EAD062
:101F9800FFF706F9054803F031FE0028E7D0BDE851
:101FA8000840FFF7FDB800BF38000020580A00209D
:101FB8004001002054000020122301480B80704784
:101FC80024000020042301480B80704720000020D3
:101FD80010B5044C0A460448214604F09BF92046F3
:101FE80010BD00BF1C0D00202CED000810B5044CDE
:101FF8000A460448214604F08DF9204610BD00BF6A
:102008001C0D002040ED000810B5044C0A46044899
:10201800214604F07FF9204610BD00BF1C0D0020AA
:1020280054ED000810B5044C0A460448214604F053
:1020380071F9204610BD00BF1C0D002060ED00089E
:102048001A231A480B80D0F8E837D0F8F0279B18E5
:1020580001D117487047164A10B511460024D0F828
:10206800EC0702F1100E4FEA137CB3F1204F34BF96
:102078000CF1300C0CF1370C81F802C0CC70023135
:102088008E454FEA0313EED100240A49030FB0F13D
:10209800204F34BF303337339374D47402329142B3
:1020A8004FEA0010F2D1024810BD00BF00F0FF1F38
:1020B800040000200C00002000207047202815D0C4
:1020C800212801D000207047104B00201A680A70A0
:1020D8001A68120A4A705A888A70DA78CA701A79A5
:1020E8000A715A794A719B798B71704710B4074B02
:1020F8000C6891F804C048798A7958711C6083F893
:1021080004C09A71002010BC704700BF6400002012
:1021180010B5064C00222046054904F0B3FA2046C3
:10212800044904F0B9FA002010BD00BF580A002085
:10213800E80F0020E813002041B301442DE9F041E5
:10214800421E0027124C134D134E01F1FF3C08E0CC
:10215800BEF1C70F05F8080094BF23802780944577
:1021680012D0B4F9003012F8010F002B2188F6DBE9
:102178004B1C4028C3F30D0EC1F30D089BB2E7D1E9
:10218800314394452180ECD1BDE8F081704700BF10
:10219800E40F00201C0F00200080FFFF70B50446EC
:1021A8000D46074E2146304604F076FA304604F0D4
:1021B80095FA20462968FFF7BFFF002070BD00BFD1
:1021C800580A0020004870471C0F0020024B18884E
:1021D800C0F30D00704700BFE40F0020014B1888C2
:1021E800C00B7047E40F00200021034BC8220348AE
:1021F80019800AF0B3BB00BFE40F00201C0F0020B9
:10220800B0B32DE9F0470F4679B31A4C94F89C32D5
:10221800032B2AD180464FF0000AA7EB0A06B6B274
:10222800402E28BF402602F0C7F808EB0A090546E9
:1022380004E002F0C1F8431B022B16D8D4F8B832D8
:10224800D3F81432002BF4D132464946204604F024
:1022580019FA204604F028FA0128EAD056441FFA51
:1022680086FA5745D9D8012000E00020BDE8F0875C
:1022780000207047580A00200E4B02689A4200D08E
:102288007047002200B503F5DA33D96983B041F409
:102298000001D961DB69142003F40003019311469E
:1022A800019B02F077FD142003B05DF804EB02F007
:1022B800ADBD00BF005C00400146D0F8D40201F576
:1022C800267103F0B7BC00BF01EB810300EBC30329
:1022D800D3F86421D0F8D40203F0DCBC01EB81030D
:1022E80000EBC3035A6AD0F8D40203F00DBD00BF57
:1022F800D0F8D40203F0A8BD10B583790446022BA8
:1023080001D0FEF74DFFD4F8D402012103F084FD7B
:10231800D4F8D402BDE8104003F056BD10B5044609
:10232800D0F8D40203F07CFDA37A23B1024A1369E2
:1023380043F00603136110BD00ED00E0D0F8D402AD
:1023480003F078BD10B508241D4B00221C7104460B
:1023580002215A811A731B4AC3F8D4421846C4F89A
:10236800C03299711A6000F0B1F830BB002218230E
:102378001146D4F8C00201F025F858230022802124
:10238800D4F8C00201F01EF8C02300228121D4F83D
:10239800C00201F017F84FF4887300220121D4F825
:1023A800C00201F00FF84FF4807300228221D4F8A4
:1023B800C00201F007F8002010BDFEF7F1FED5E7D6
:1023C800081A0020005C004008B5D0F8C00200F0F0
:1023D800DBF818B102280CBF0120022008BD00BF9D
:1023E800944608B51A46D0F8C002634600F0CEFEFF
:1023F80018B102280CBF0120022008BD08B5D0F88A
:10240800C00200F0F9FE18B102280CBF012002201A
:1024180008BD00BF08B5D0F8C00200F05BFF18B1D6
:1024280002280CBF0120022008BD00BF08B5D0F863
:10243800C00200F08FFF18B102280CBF0120022053
:1024480008BD00BF0A06D0F8C03206D401EB8101EE
:1024580003EBC10393F85201704701F07F0101EBD0
:10246800810103EBC103987C704700BF08B5D0F821
:10247800C00200F077FE18B102280CBF012002202C
:1024880008BD00BF08B5D0F8C00200F005FF18B1BC
:1024980002280CBF0120022008BD00BF08B5D0F8F3
:1024A800C00200F0D7FE18B102280CBF012002209C
:1024B80008BD00BFD0F8C00200F0E4BE0048704775
:1024C800E8170020704700BF704700BF70B5C8B15B
:1024D80090F89132044603F0FF02002B4FD00322FC
:1024E8000023254684F891226371206800F09AFF42
:1024F80055F8040B95E80E0000F082FF28B102237E
:1025080084F891320125284670BD0146206800F004
:1025180093FF01460028F2D12679FEB123462246D0
:102528004FF0010C11740131B142C2E9080082F880
:1025380011C0D07442F8280FF4D100210A4683F85C
:1025480050110131B142C3E9582283F8512183F86F
:102558005321C3F8682103F12803F0D195E80E0050
:10256800206800F06BFF05460028C8D1012360737E
:10257800206884F8913201F0A3FE284670BD80F8E7
:102588009022FFF779FEAAE738B590F89032012B30
:1025980012D004460125006884F8905200F038FFF4
:1025A80029462046FFF790FF206801F087FE0023A8
:1025B80084F89032184638BD022038BD2DE9F04F16
:1025C800044685B0006801F07DFE10F4004528D16E
:1025D800430500F1EC81470417D4860400F16982B1
:1025E80010F4805340F0C28205057ED4820500F1C4
:1025F800B383C30512D52268B2F8443023F480733C
:102608001B041B0CA2F8443008E02268B2F84430DE
:1026180023F480431B041B0CA2F8443005B0BDE82A
:10262800F08F2068B0F844301A04F7D540F68F7759
:10263800C24E10E011F0100100F0EC80018811F496
:1026480000658BB240F059811B0400F1CE81B0F8CF
:1026580044301A04E2D5B0F84450A9B215F00F0579
:10266800E8D030F825304FEA850819041FFA83F9B5
:1026780000F1898019F0800FE9D030F825309BB23D
:10268800334043F4004320F8253008EB050304EBFE
:10269800C302D17CDB00012900F01782206892F880
:1026A80010C019F4807A916A00F5806E4FEACC0B5D
:1026B80040F0DA80B0F85050ADB25D4402353EF8D3
:1026C8001550C5F309058D4280F02B82491B916294
:1026D80003F11001536A21442B445362D36A2B44FB
:1026E800D36201F075F92068B1E72768ADF10205FA
:1026F80039462A460DF10E0631F8040B22F8020F6E
:102708009642F9D1B7F8402092B242F00102A7F8F8
:1027180040202168B1F8402022F001021204120C76
:10272800A1F840202168B1F844205005FBD5B1F844
:10273800442022F480621204120CA1F8442022687A
:1027480035F8021FD1520433202BF8D122682046D5
:10275800B2F840309BB243F00803A2F84030226838
:10276800B2F8443023F400631B041B0CA2F8443075
:102778002268B2F840309BB243F00403A2F840301C
:10278800FFF7CCFD4AE730F8253008EB05013B4060
:1027980043F0800320F8253004EBC10191F85C3147
:1027A800002B40F0CD80206891F85021B0F85030CF
:1027B8009BB2063303EBC20300EB4303B3F800A458
:1027C800CAF3090ABAF1000F40F0EF814FF0000A8E
:1027D80008EB050304EBC302D900D2F86C3153446B
:1027E800C2F86C31D2F864315344C2F86431D2F87B
:1027F800683123B1D2F86031534540F29A8108EB31
:10280800050304EBC303204693F85011FFF75CFD62
:1028180020682FE703889BB2334043F400430380CA
:102828002268207CB2F850309BB203EBC00302EB65
:102838004302B2F80434626AC3F309031A44E36238
:1028480020466262FFF74AFD637B002B53D0A36AE0
:102858002068002B7FF4FBAE627B42F08002A0F878
:102868004C2020686373F2E6B0F8503009F4804ACF
:102878009BB219F040095B4440F09F8106333EF853
:102888001330C3F309038B4200F27E82C91A9162A6
:10289800002900F07B82BAF1000F0ED130F82C101D
:1028A80021F4E04121F070010904090C41F4404190
:1028B80041F0800120F82C10206808EB050C04EB8F
:1028C800CC0C9CF83410012900F09183A84404EB47
:1028D800C80898F8102030F8223023F4E04323F099
:1028E80040031B041B0C83F0300343F4004343F004
:1028F800800320F822302068A9E6B0F8503094F818
:1029080050219BB203EBC20300EB4303B3F80C3432
:10291800B4F85621C3F30903C4F86C3104F52671E1
:1029280001F0E6FC2268204613883B4043F0800310
:102938001380FFF7C1FC206889E600BF0F8FFFFFF7
:1029480091F853312268022B91F8500100F0AF81C1
:1029580032F8203023F4E04323F070031B041B0CEF
:1029680043F4004343F0C00322F82030206891F874
:10297800502130F8223013F4804FB0F850309BB219
:1029880000F0DF80023303EBC20300EB4303B3F82C
:1029980000A4CAF3090ABAF1000F3FF417AFB1F85F
:1029A80058215346D1F8641101F0A2FC10E72268BF
:1029B8002046B2F8443023F480631B041B0CA2F8B1
:1029C8004430FFF799FC94F89032012B3FF426AE7F
:1029D800012329462068657384F8903201F068FC69
:1029E80084F8905205B0BDE8F08F40F68F730288E6
:1029F800134043F080030380206894F85021B0F816
:102A080050309BB203EBC20300EB4303B3F80C3422
:102A1800C3F30903C4F86C3193B1D4F8641179B1E4
:102A2800B4F8562101F064FCD4F86431D4F86C2170
:102A3800204613442946C4F86431FFF745FC206852
:102A4800038819059AB23FF502AE02F44052B2F576
:102A5800405F3FF4FCADB0F8503000F20C409BB240
:102A6800C25AC2F30902C252D4F860213E2A40F287
:102A780080815109D206C25A08BF01F1FF3192B2D2
:102A880042EA81226FEA42426FEA524292B2C2524D
:102A98002268138823F4804323F070031B041B0C63
:102AA80083F4405343F4004343F0800313802068C9
:102AB800CDE52268B2F8443023F400531B041B0C04
:102AC800A2F8443005B0BDE8F08F00216B1C03EB81
:102AD800830344F83310137FCBB119F0400940F059
:102AE800DA80517C2368002940F0EF81127CB3F82A
:102AF8005010120103F20C4389B20B44D15AC1F3AE
:102B08000901D152D15A89B241F40041D152A844A5
:102B180004EBC808204698F81010FFF7DFFB206880
:102B280095E520466146C2F828A0FFF7D7FB206844
:102B38008DE501F5A8712068214400F049FF20685F
:102B480098E5063303EBC20300EB4303B3F800A494
:102B5800CAF3090ABAF1000F3FF438AEB1F85A21A6
:102B68005346D1F8641101F0C3FB31E622682046D0
:102B7800B2F8403023F004031B041B0CA2F84030C9
:102B88002268B2F8403023F008031B041B0CA2F89B
:102B98004030FFF7D3FB2268B2F8443023F4805367
:102BA8001B041B0CA2F8443038E5B1F856215346F3
:102BB800D1F8641101F09CFB0AE602333EF81330A9
:102BC800C3F309038B4280F03B81C91A9162BAF1C1
:102BD800000F0ED030F82C1021F4E04121F07001E4
:102BE8000904090C41F4404141F0800120F82C10FF
:102BF800206808EB050C04EBCC0C9CF83410012978
:102C08007FF464AEDCF824101944CCF82410D16A9F
:102C18001944D162DCF83010DCF820209142C0F071
:102C28006782891ACCF8301093B208EB050104EBDF
:102C3800C10191F811C0BCF1000F40F04A82097C33
:102C48003E2A00EB0111B0F8500001F2044180B2B5
:102C580031F800C0CCF3090C21F800C040F25982C9
:102C68004FEA521CD2060A5A08BF0CF1FF3C92B236
:102C780042EA8C226FEA42426FEA524292B20A5208
:102C8800206808EB050104EBC1010A8B496A01F0D1
:102C98001FFB20681AE6537C002B40F02481236830
:102CA800127CB3F85010120103F2044324E7B2F87F
:102CB80050304FEAC00B9BB219F4804ED1F868C16E
:102CC80002F5806A5B4400F01C8102333AF8133045
:102CD800C3F3090363459A4600F28181ACEB030C08
:102CE800C1F868C1BCF1000F0FD132F8201021F4EF
:102CF800804121F070010904090C81F4005141F46C
:102D0800004141F0800122F8201019F0400F14D042
:102D180008EB050204EBC20292F85001216831F871
:102D2800202022F4E04222F070021204120C42F435
:102D3800004242F0C00221F82020002B3FF448ADA9
:102D480008EB050104EBC101B1F858212068D1F85E
:102D5800641101F0CDFA3BE522682046B2F8443010
:102D680023F400731B041B0CA2F84430FFF7C0FACD
:102D780054E4002A40F00B81C25A6FEA42426FEADB
:102D8800524292B2C25283E6C2F8289008EB050379
:102D980004EBC3035B7C002B40F00481B0F8503097
:102DA80000F204429BB24FEA0C1C1A4432F80C3071
:102DB800C3F3090322F80C3032F80C306FEA4343AE
:102DC8006FEA53439BB222F80C3008EB050304EB7F
:102DD800C303597C1A7C2368002940F06D81B3F83D
:102DE800501003F20C4389B212010B44995AC1F3F3
:102DF80009019952995A6FEA41416FEA514189B2E2
:102E0800995208EB050904EBC909204699F81010F6
:102E1800FFF764FABAF1000F55D199F8101022683B
:102E280032F8213023F4E04323F070031B041B0C19
:102E380043F4404343F0800322F82130206845E5FD
:102E48000021537C9162002B40F0BB80B0F85020E9
:102E580000F2044392B24FEA0C1C134433F80C20DE
:102E6800C2F3090223F80C2033F80C2092B242F482
:102E7800004223F80C2008EB050304EBC303597C3C
:102E88001A7C2368002940F0F780B3F8501003F249
:102E98000C4389B212010B44995AC1F309019952A2
:102EA800995A6FEA41416FEA514189B2995208EB48
:102EB800050904EBC909204699F81010FFF70EFA26
:102EC800BAF1000FA9D1206800E501297FF41FAEEF
:102ED800B3F85010127C03F20C4389B212010B4470
:102EE80022F8039013E6012B7FF411AE2368127CBD
:102EF800B3F8500003F2044380B212010344D152E4
:102F080005E606333AF81330C3F3090363459A46D6
:102F18006AD8ACEB030CC1F868C1BCF1000F0FD143
:102F280032F8201021F4804121F070010904090CC5
:102F380081F4005141F4004141F0800122F8201051
:102F480019F0400F14D108EB050204EBC20292F805
:102F58005001216831F8202022F4E04222F070026A
:102F68001204120C42F4004242F0C00221F8202060
:102F7800002B3FF42DAC08EB050104EBC101B1F8BF
:102F88005A212068D1F8641101F0B2F920E45108FF
:102F9800D507C25A48BF013192B242EA812292B2A1
:102FA800C25275E5012B7FF42CAF0021B0F85020F8
:102FB80000F2044392B24FEA0C1C134423F80C109D
:102FC80003E7012B7FF473AFB0F8502000F20443FD
:102FD80092B24FEA0C1C134423F80C104BE74FF045
:102FE800000CC1F868C180E6C1F868E198E7DCF830
:102FF80024101944CCF82410D16A1944D162DCF8A1
:103008003010DCF82020914251D3891ACCF83010C6
:1030180093B208EB050104EBC10191F811C0BCF1B2
:10302800000F36D1097C3E2A00EB0111B0F85000A0
:1030380001F20C4180B231F800C0CCF3090C21F840
:1030480000C05AD94FEA521CD2060A5A08BF0CF1DE
:10305800FF3C92B242EA8C226FEA42426FEA524245
:1030680092B20A52206808EB050104EBC1014A8BB1
:10307800496A01F02DF926E701297FF418AF0020ED
:10308800B3F8501003F20C4389B212010B44985262
:103098000DE7BCF1010FE6D10A7CB0F8501000EB47
:1030A800021202F20C4289B253522068DBE799BB44
:1030B8001A468CF83410ACE701297FF4A2AE002040
:1030C800B3F8501003F20C4389B212010B44985222
:1030D80097E6BCF1010F7FF4D4AD0A7CB0F850102C
:1030E80000EB021202F2044289B253522068C8E58A
:1030F80031B91A468CF8341097E5B2B90A5AABE7D9
:103108004FF0000E0A468BB28CF834E0CCF830E071
:103118008BE5C2B90A5AADE54FF0000E0A468BB2EC
:10312800CCF830E08CF834E073E74FEA520CD20761
:103138000A5A48BF0CF1010C92B242EA8C2292B2B0
:103148000A5220688FE74FEA520CD2070A5A48BF42
:103158000CF1010C92B242EA8C2292B20A52206817
:103168008FE500BF90F89022012A0DD010B50122FA
:1031780004460068617384F8902201F099F80023EE
:1031880084F89032184610BD0220704701F0070CF1
:1031980010B5090604460CEB8C004FEAC0001FD49A
:1031A8004FF0000E00F5A871204480F851E1214449
:1031B800022BCB7008BF002381F800C008BF0B7139
:1031C8000A6194F89032012B13D00123206884F807
:1031D800903200F049F9002384F89032184610BD67
:1031E8004FF0010E00F11001204480F811E0214455
:1031F800DEE7022010BD00BF01F0070202EB8203E8
:10320800090610B54FEAC303044616D403F5A8719E
:1032180001440344002083F851010A7094F8903265
:10322800012B15D00123206884F8903200F0E0FAD1
:10323800002384F89032184610BD03F110010144B0
:103248000344012058740A7094F89032012BE9D194
:10325800022010BD10B5002401F0070101EB810E1A
:1032680000EBCE0CCCE959238CF85011CCF86C410A
:103278008CF851410CF5A871006800F0A9FB2046B4
:1032880010BD00BF01F0070101EB810100EBC10097
:10329800D0F86C01704700BF01F0070138B501EBA9
:1032A800810E00EBCE0C012500248CF8101061462D
:1032B800CCF82420CCF82830CCF830308CF83450B6
:1032C800CCF82C408CF811501031006800F080FBCD
:1032D800204638BD38B5037901F00705AB4230D335
:1032E8000B0604461BD401EB8101C90001F5A87245
:1032F80043188118002283F8512101230D708B7027
:1033080094F890229A421AD0206884F8903200F0FB
:103318004DFFC5B1002384F89032184638BD01220C
:1033280005EB8503DB0003F1100103445A74012304
:1033380001440D708B7094F890229A42E4D10220D7
:1033480038BD012038BD206804F5267100F0BEFFA5
:10335800E0E700BF38B5027901F00F039A422FD396
:1033680001F0070202EB8203090604464FEAC30391
:1033780017D403F5A871014403440025002083F8FD
:1033880051010A708D7094F89032012B16D00123E8
:10339800206884F8903200F031FF84F89052284673
:1033A80038BD03F11001014403440025012058747D
:1033B8000A708D7094F89032012BE8D1022038BD44
:1033C800012038BD11F0800F0CD001F0070101EB8E
:1033D800810100EBC100103099B262B9C18002735B
:1033E8000020704701EB810100EBC10000F5A870D7
:1033F80099B2002AF2D0012283600273002070473C
:1034080084B004A800E90E00002004B0704700BF93
:10341800034600224FF43F41A3F844201046A3F886
:1034280040107047034644F2FF02B3F840100020F2
:103438000A40A3F840207047002070474FF0000C66
:1034480010B584B004AC04E90E004FF0010E034639
:103458006046A3F840E0A3F840C0A3F844C0A3F82E
:1034680050C004B010BD00BF034630B591F800C08D
:10347800C87833F82C2022F4EC4222F070021204AF
:10348800120C032800F2AF81DFE800F05C54025808
:10349800002048F2800E42EA0E0223F82C2091F810
:1034A80000C0D24C33F82C2092B222404CEA0202DF
:1034B8004EEA020223F82C200A7B002A45D1CA884A
:1034C80091F800C04D785208520003EB0C1C002DF7
:1034D80000F00981B3F850E01FFA8EFEF444ACF80E
:1034E800002491F800C033F82C5003EB8C026D06D1
:1034F8000CD533F82C2092B2224042F4004242F01C
:10350800C00223F82C200A7803EB8202CB78012B27
:10351800138823F4E04323F040034FEA03434FEAC0
:10352800134318BF83F0200343F4004343F08003A0
:10353800138030BD002042F48062AAE7002042F4E4
:10354800C062A6E742F40072A3E7CA7891F800C007
:10355800022A33F82C2000F01F8122F4E24222F0E4
:1035680070021204120C4EEA020E23F82CE00A78BC
:10357800B1F808C0B3F8504003EB02124FEA5C0CF4
:10358800A4B202F580624FEA4C0C22F804C00A7813
:10359800B1F80AC0B3F8504003EB02124FEA5C0CD2
:1035A80002F58162A4B24FEA4C0C22F804C04A78B2
:1035B800002A4AD10C7833F8242003EB840C5504F4
:1035C80011D533F8242022F4E04222F070021204CC
:1035D800120C42F4404242F0800223F8242091F871
:1035E80000C003EB8C0CBCF80020520611D5BCF8C7
:1035F800002022F4E04222F070021204120C42F47D
:10360800004242F0C002ACF8002091F800C003EB81
:103618008C0C48F28004BCF8002022F4804222F08E
:1036280070021204120C82F440522243ACF80020BB
:10363800097833F8212022F4E04222F040021204F3
:10364800120C144323F8214030BD91F800C033F820
:103658002C2003EB8C04550410D533F82C2022F4CD
:10366800E04222F070021204120C42F4404242F08E
:10367800800223F82C200C7803EB8404228852065D
:103688000ED5228822F4E04222F070021204120CB5
:1036980042F4004242F0C00222800C7803EB84041A
:1036A800CA78012A228822F4E04222F040024FEA36
:1036B80002424FEA124218BF82F0200242F400424E
:1036C80042F080022280097833F8212022F48042D7
:1036D80022F070021204120C42F4004242F08002FE
:1036E80023F8212030BDB3F85040A4B26444A4F8B4
:1036F80008240A78B3F850C003EB02121FFA8CFCB6
:1037080002F20C4232F80C40C4F3090422F80C40CF
:103718000C693E2C2ED8002C58D132F80C406FEA98
:1037280044446FEA5444A4B222F80C400C7833F8AD
:10373800242052040ED533F8242022F4E04222F04B
:1037480070021204120C42F4404242F0800223F844
:1037580024200C784CBB1A8822F4804222F0700294
:103768001204120C82F4405242F4004242F08002E9
:103778001A8030BD6509E40632F80C4008BF05F12F
:10378800FF35A4B244EA85246FEA44446FEA5444FE
:10379800A4B222F80C40C9E792B2224042F4014296
:1037A80042F0800223F82C20E1E633F8242022F4AA
:1037B800804222F070021204120C82F4005242F489
:1037C800004242F0800223F8242030BD6508E40757
:1037D80032F80C4048BF0135A4B244EA8524A4B2AB
:1037E80022F80C40A2E7012053E600BF8F8FFFFFAD
:1037F80030B40A780D7B4C789300BDB9002C00F0EA
:10380800B98030F822400344640600F1CF801A885A
:1038180022F4E04222F040021204120C42F4004268
:1038280042F080021A80002030BC7047002C50D132
:1038380030F822400344640410D530F8223023F4D1
:10384800E04323F070031B041B0C43F4404343F094
:10385800800320F822300B7800EB83031A88550682
:103868000ED51A8822F4E04222F070021204120CDB
:1038780042F4004242F0C0021A800B7800EB830346
:103888001A8822F4E04222F070021204120C42F468
:10389800004242F0C0021A8048F280020C7830F8E8
:1038A800243023F4804323F070031B041B0C1343C0
:1038B80020F82430097830F8213023F4E04323F04D
:1038C80040031B041B0C1A4320F8212030BC0020A5
:1038D800704730F822400344640410D530F8223091
:1038E80023F4E04323F070031B041B0C43F4404310
:1038F80043F0800320F822300B7800EB83031A880A
:1039080052060ED51A8822F4E04222F07002120400
:10391800120C42F4004242F0C0021A800B7800EB0D
:1039280083031A8822F4E04222F070021204120C77
:1039380042F4404242F080021A8048F280020C7839
:1039480030F8243023F4E04323F040031B041B0C1D
:10395800134320F82430097830F8213023F48043C9
:1039680023F070031B041B0C1A4320F8212030BCE1
:103978000020704730F822400344650410D530F821
:10398800223023F4E04323F070031B041B0C43F4A0
:10399800404343F0800320F822300B7800EB830388
:1039A8001A8822F4804222F0700235E730F822307B
:1039B80023F4E04323F070031B041B0C43F400437F
:1039C80043F0C00320F822300B7800EB83031EE796
:1039D8004B7870B5012B0A7B76D0002A43D0CA7881
:1039E800022A00F05C81012A40F0C2808C690A69D1
:1039F800944294BF0025A51A8D6188BF14460A78A1
:103A0800002B40F0FB81B0F8505000F20443ADB2F7
:103A180012012B449D5A3E2CC5F309059D5200F214
:103A2800FF81002C40F0F3829D5A6FEA45456FEA0A
:103A38005545ADB29D524B78002B40F0D281B0F87D
:103A480050400B78A4B200F20C4222441B01D45A15
:103A5800C4F30904D452D45AA4B244F40044D4524E
:103A68000A78920020E08D690B690C789D4284BF2A
:103A7800EA1A1D468A61B0F8503000F20C429BB237
:103A880024011A44A35A3E2DC3F30903A35264D850
:103A9800002D40F08281A35A6FEA43436FEA5343F3
:103AA8009BB2A3520A789200835A23F4804323F0EE
:103AB80070031B041B0C83F4405343F4004343F08E
:103AC80080038352002070BD0C698B69A34228BF14
:103AD8002346002A00F04381CD780A6A022D91F826
:103AE80000C047D0D21A0A621FFA83FE30F82C5061
:103AF8000EF1010E4FEA5E04B0F850E06E064FEA90
:103B08000C1C9BB200F580621FFA8EFE40F15481B6
:103B180000F20C45754425F80C30B1F80AC04B6921
:103B280002EB4C023CB103EB440E33F802CB734575
:103B380022F804CBF9D10A7830F8223023F4E04394
:103B480023F040031B041B0C83F0300343F40043B1
:103B580043F0800320F82230B4E7A35A4FEA551CFB
:103B6800ED0608BF0CF1FF3C9BB243EA8C2393E7B8
:103B7800012070BD944280F0F98130F82C2022F4A5
:103B8800E04222F070021204120C42F4014242F0A8
:103B9800800220F82C200C6A0A78E41A0C6230F8AB
:103BA800224014F0400F4C7800F06381002C40F064
:103BB8006B82B0F8505000F20C44ADB212012C44A4
:103BC800A55A3E2BC5F30905A55240F27982DD06B8
:103BD800A55A4FEA531608BF06F1FF36ADB245EABB
:103BE80086256FEA45456FEA5545ADB2A5521FFADD
:103BF80083FC4A694E890CF1010C00F580645FEA88
:103C08005C0C154604EB460408D005EB4C0C35F863
:103C1800022B654524F8042BF9D14A690C6A0D6911
:103C28001A44AC4292BF0025E51A1C464B784A61FB
:103C38000D62002B40F01982B0F850300D789BB21D
:103C480000F204422D011A44AB5A3E2CC3F3090377
:103C5800AB5240F26182E306AB5A4FEA541608BFF2
:103C680006F1FF369BB243EA86236FEA43436FEAC5
:103C780053439BB2AB524A69A3B20D89013300F595
:103C880080645B0804EB45043FF455AF02EB430343
:103C980032F8025B9A4224F8045BF9D14BE70C78BE
:103CA800002B3CD1B0F8502000F2044392B21344E8
:103CB80024011A5BC2F309021A530A693E2A00F268
:103CC8009F80002A40F098811A5B6FEA42426FEAAF
:103CD800524292B21A534B780C78002B40F0728102
:103CE800B0F8502000F20C4392B2134424011A5B3E
:103CF800C2F309021A530A693E2A40F23381550970
:103D0800D6061A5B08BF05F1FF3592B242EA852252
:103D18006FEA42426FEA524292B21A530C78CB6968
:103D2800A200002B3FF4C0AE44F2400330F8244018
:103D3800851803EA0406A34302D0002E7FF4B4AE2C
:103D48002B8823F4E04323F070031B041B0C43F47B
:103D5800004343F0C0032B800A789200A4E69CB28B
:103D680023464A69CD88013300F5806C5B080CEB6B
:103D7800450C18BF02EB430E05D032F8023B7245E2
:103D88002CF8043BF9D1B0F850500A78ADB200F2E3
:103D9800044312012B44D452CDE6EB07A35A4FEA51
:103DA800550C48BF0CF1010C9BB243EA8C239BB223
:103DB800A3520A78920077E600F20445754425F884
:103DC8000C300D894B6902EB4502002C3FF4B3AE71
:103DD80003EB440E33F802CB734522F804CBF9D138
:103DE800A9E6012B0A7809D1B0F85050A3B2ADB2B8
:103DF80000F20C4412012C44A3520A78920053E6B4
:103E08005509D6061A5B08BF05F1FF3592B242EA9A
:103E180085226FEA42426FEA524292B21A535AE737
:103E28006509E60633F802C008BF05F1FF35AD02A3
:103E3800ADB21FFA8CFC4CEA050C4CF4004C23F88C
:103E480002C04B78002BCCD1B0F8502000F20C43C4
:103E580092B213440A7812019C5AC4F309049C5282
:103E68009C5AA4B2254345F400459D520A78920015
:103E78001AE6002C40F0EC80B0F8505000F20444F0
:103E8800ADB212012C44A55A3E2BC5F30905A55223
:103E980040F23781DD06A55A4FEA531608BF06F1EE
:103EA800FF36ADB245EA86256FEA45456FEA5545C6
:103EB800ADB2A5521FFA83FC4A690E890CF1010CB8
:103EC80000F580645FEA5C0C154604EB460408D0F4
:103ED80005EB4C0C35F8022B654524F8042BF9D179
:103EE8004A690C6A0D691A44AC4292BF0025E51A6A
:103EF8001C464B784A610D62002B40F0D280B0F826
:103F080050300D789BB200F20C422D011A44AB5A86
:103F18003E2CC3F30903AB5240F2DD80E306AB5AF3
:103F28004FEA541608BF06F1FF369BB243EA8623D0
:103F38006FEA43436FEA53439BB2AB524A69A3B259
:103F48004D89013300F580645B0804EB45043FF4B8
:103F5800F2AD02EB430332F8025B9A4224F8045BA9
:103F6800F9D1E8E5002A3BD11A5BD1E630F82C30CC
:103F780023F4E24323F070031B041B0C43F40043B7
:103F880043F0800320F82C30B0F850500C78ADB2D4
:103F980000F204432B44240195B2E55292B20D89F4
:103FA800013200F5806452084B6904EB45043FF484
:103FB800C2AD03EB420533F8022BAB4224F8042BC5
:103FC800F9D1B8E5012B7FF4AAAEB0F8502000F281
:103FD8000C4392B213440A8A24011A530C789EE6C1
:103FE8005508D2071A5B48BF013592B242EA8522CA
:103FF80092B21A530C7892E65508D2071A5B48BF5A
:10400800013592B242EA852292B21A5363E66508F4
:10401800E60748BF01359E5AAD02ADB2B6B22E438F
:104028009E524B78002B7FF4DCAEB0F8502000F2A3
:104038000C4392B213440A7812019C5AC4F309043F
:104048009C529C5AA4B225439D520A7892002BE5B3
:10405800012C7FF42FAFB0F8505000F20444ADB2F9
:104068002C4412019DB2A55224E7012B7FF404AE23
:10407800B0F850500A78ADB200F2044312012B4454
:10408800A5B2D5524A69F7E5012C7FF4B0ADB0F876
:10409800505000F20C44ADB22C4412019DB2A5520E
:1040A800A5E5012B7FF44BAFB0F850500A78ADB2BC
:1040B80000F20C4312012B44A5B2D5524A693EE7DF
:1040C800002B46D1A55A6FEA45456FEA5545ADB272
:1040D800A5524A69A2E5002C33D06608E30704F12B
:1040E8000103AC5A48BF0136A4B244EA8624A4B2FC
:1040F800AC524D8900F580644A695B0804EB4504BD
:1041080027E7002B3BD1A55A6FEA45456FEA55458D
:10411800ADB2A5524A69E4E69CB16608E30704F12A
:104128000103AC5A48BF0136A4B244EA8624A4B2BB
:10413800AC520D8900F580644A695B0804EB4504BC
:10414800A4E5AB5A6FEA43436FEA53439BB2AB52C1
:10415800F1E4DD07A55A4FEA530648BF0136ADB270
:1041680045EA8625ADB2A5524A8903F1010C00F54E
:1041780080644D694FEA5C0C04EB420445E5DD07B9
:10418800A55A4FEA530648BF0136ADB245EA86251F
:10419800ADB2A5520A8903F1010C00F580644D699E
:1041A8004FEA5C0C04EB420492E600BF4B780A78B5
:1041B8008BB130F8223023F4E04323F040031B0492
:1041C8001B0C83F0100343F4004343F0800320F8F2
:1041D80022300020704730F8223023F4804323F047
:1041E80070031B041B0C83F4805343F4004343F017
:1041F800800320F822300020704700BF0B7B6BBB88
:1042080010B40B784C789A0054B330F82320520637
:104218000DD530F8232022F4E04222F07002120477
:10422800120C42F4004242F0C00220F82320CB785E
:10423800012B28D00A7830F8223023F4E04323F009
:1042480040031B041B0C83F0200343F4004343F09A
:10425800800320F8223010BC0020704700207047EF
:1042680030F823400244640410D4138823F48043B4
:1042780023F070031B041B0C83F4405343F40043E6
:1042880043F080031380002010BC704730F82320CF
:1042980022F4E04222F070021204120C42F440426E
:1042A80042F0800220F823200A7800EB8202DCE743
:1042B80011B98023A0F84C300020704700207047C7
:1042C80000207047B0F8440080B270470020704763
:1042D800013300EB42005B0800F5806007D000EB7B
:1042E800830231F8023B20F8043B8242F9D170473F
:1042F80070B500EB42005E0800F5806514D02846D2
:10430800B64601F1020C30F8042B0CF1020C92B203
:10431800140ABEF1010E0CF8042C0CF8034CF2D16F
:1043280001EB460105EB8605DB0744BF2B880B70C4
:1043380070BD00BF38B54FF47A730D4A0546117841
:104348000C4AB3FBF1F31268B2FBF3F000F06CFD1A
:1043580008B90F2D01D9012038BD04460246294667
:104368004FF0FF3000F016FD034B20461D6038BDAE
:104378006C000020000000207000002008B5074AEB
:104388000320136843F01003136000F0F1FC0F20C2
:10439800FFF7D0FFFDF748FA002008BD00200240D3
:1043A800034A044B11681B780B441360704700BF25
:1043B800E01C00206C000020014B1868704700BF0B
:1043C800E01C002038B50446FFF7F6FF631C0546DD
:1043D80002D0044B1B781C44FFF7EEFF401BA042A1
:1043E800FAD338BD6C000020002800F0E6812DE9E2
:1043F800F04103680446DD0782B032D59A494A681D
:1044080002F00C02042A00F000814A6802F00C0253
:10441800082A00F0F6806368B3F5803F00F0FF805B
:104428001BB1B3F5A02F00F08B818F4B1A6822F4D3
:1044380080321A601A6822F480221A606368002B9E
:1044480040F0F680FFF7B8FF874E054605E0FFF716
:10445800B3FF401B642800F2218133689B03F6D424
:1044680023689F0728D5804B5A6812F00C0F00F07C
:10447800AC805A6802F00C02082A00F0A280236976
:10448800002B00F022810122784B774E1A60FFF74B
:1044980093FF054605E0FFF78FFF401B022800F257
:1044A800FD8033689807F6D53368626923F0F8030E
:1044B80043EAC203336023681A075FD45D073DD51A
:1044C800694BDA69D00000F19A800125DA6942F077
:1044D8008052DA61DB6903F080530093009B644EDD
:1044E8003368D90540F1CA80E368012B00F0FE80EB
:1044F800002B40F0018103F1804303F504331A6A6D
:1045080022F001021A621A6A22F004021A62E368AF
:10451800002B00F0C780FFF74FFF41F288380646AE
:10452800514F05E0FFF748FF801B404500F2B68079
:104538003B6A9B07F6D5002D40F0FC80E369CBB1C0
:10454800494D6A6802F00C02082A00F0E280002255
:10455800022B464B1A6600F00081FFF72DFF044638
:1045680005E0FFF729FF001B022800F297802B685F
:104578009B01F6D4002002B0BDE8F081A369002BAE
:104588002CD00122394B384EC3F88024FFF714FF92
:10459800054604E0FFF710FF401B02287ED8736A27
:1045A8009B07F7D5334B344A1B68A2FB03235B0AEE
:1045B800019300BF019B5A1E0192002BF9D1236879
:1045C8007CE75B68DE033FF55AAF274B1B689D0706
:1045D8003CD52369012B39D00120CCE7234A224E50
:1045E800C2F88034FFF7E8FE054604E0FFF7E4FE72
:1045F800401B022852D8736A9F07F7D4DFE70025CB
:104608006DE74A68D0037FF506AF174A1268910331
:104618007FF527AF6268002A7FF423AFDCE7124AF0
:10462800136843F4803313606368002B3FF40AAFC8
:10463800FFF7C2FE0C4E054604E0FFF7BDFE401B27
:1046480064282BD833689A03F7D509E7064A6169C5
:10465800136823F0F80343EAC103136023681A07B9
:104668007FF52CAF8AE700BF0010024000004242ED
:104678000070004000000020D34D6210336843F4FE
:1046880080733360FFF798FE07463368DA053FF515
:104698002BAFFFF791FEC01B6428F6D9032002B0A8
:1046A800BDE8F081FFF788FE41F288380646444F9E
:1046B80004E0FFF781FE801B4045EFD83B6A98076E
:1046C800F7D4002D3FF43AAF34E03E4A3C4E136035
:1046D800FFF772FE054604E0FFF76EFE401B022856
:1046E800DCD833689907F7D42368E5E6344A136AB7
:1046F80043F0010313620AE7052B314B1A6A7FF472
:10470800FFAE42F004021A621A6A42F001021A620B
:10471800FDE6012B3FF460AF6B68226A03F4803139
:1047280091427FF459AF606A03F47013181A18BFE6
:10473800012020E7224AD36923F08053D361FDE6A4
:1047480003F18043A3F53C331A6842F480221A60CF
:104758001A6842F480321A6066E7FFF72DFE0646B3
:1047680004E0FFF729FE801B022897D82B689901DF
:10477800F7D4226AB2F5803F06D16B68A26823F4A9
:10478800003313436B60226A01200D4D616A6B6828
:1047980023F474130B430B4913436B600866FFF74C
:1047A8000BFE044605E0FFF707FE001B02283FF654
:1047B80075AF2B689A01F6D5DCE60120704700BF7B
:1047C80000100240000042420E4A536803F00C01F8
:1047D800082901D00C4870470C48C3F38341DB0318
:1047E800405C0AD50849536801FB00F0084AC3F346
:1047F8004043D35CB0FBF3F07047064B03FB00F07B
:10480800704700BF0010024000127A00FCF6000852
:10481800F8F6000800093D00002800F08F802DE917
:10482800F0414A4A044613680D4603F007038B42D9
:104838000CD2136823F007030B431360136803F0CB
:1048480007038B4202D00120BDE8F0812368990755
:1048580016D55A0705D53E4A536843F4E0635360BA
:1048680023681B0704D53A4A536843F460535360DE
:10487800374AA168536823F0F0030B435360236859
:10488800DF0720D56268324B012A1B6858D0022AFC
:1048980051D09907D7D52E4E41F28838736823F046
:1048A800030313437360FFF787FD074604E0FFF730
:1048B80083FDC01B404546D87368626803F00C034B
:1048C800B3EB820FF3D1214A136803F00703AB421D
:1048D80009D9136823F007032B431360136803F007
:1048E8000703AB42AFD123685A0707D5184AE168D6
:1048F800536823F4E0630B43536023681B0707D511
:10490800134A2169536823F4605343EAC10353608F
:10491800FFF75AFF03460E4A0E4952680E48C2F383
:104928000312895C0D4ACB4000681360FFF702FD53
:104938000020BDE8F0819801ADD484E701207047DC
:104948009E03A8D47FE703207EE700BF0020024033
:1049580000100240B8F60008700000200000002097
:10496800044B054A5B680549C3F30223CB5C106816
:10497800D84070470010024000000020B0F6000840
:10498800044B054A5B680549C3F3C223CB5C106836
:10499800D84070470010024000000020B0F6000820
:1049A8002DE9F04103680446D80782B02CD53A4B6C
:1049B800DA69D10040D5394D00262B68DA0549D58A
:1049C800354D61682B6A13F4407311D001F44072BD
:1049D8009A420DD0002001272B6A314A23F44071F6
:1049E800C2F84074C2F84004D807296245D4616807
:1049F800294A136A23F440730B4313621EB1D36927
:104A080023F08053D36123689A0707D5224AA16807
:104A1800536823F440430B4353602368DB0603D4F5
:104A2800002002B0BDE8F0811B4A6169536823F495
:104A380080030B435360F3E7DA69184D42F0805264
:104A4800DA61DB69012603F080530193019B2B682F
:104A5800DA05B5D42B6843F480732B60FFF7ACFC00
:104A680007462B68DB05ABD4FFF7A6FCC01B642800
:104A7800F7D9032002B0BDE8F081FFF79DFC41F2B1
:104A8800883807462B6A9907B1D4FFF795FCC01BF5
:104A98004045F7D9EDE700BF001002400070004024
:104AA800000042422DE9F04FD1F8008085B0B8F1FE
:104AB800000F00F0D7800022031D01934FF0010E74
:104AC8000F24134694469B4D9B4F06E0013338FA5A
:104AD80003F602F1040200F0C5800EFA03F939EA80
:104AE800080A09EA0806F1D1D1F80480B8F1120FD2
:104AF80000F2C280B8F1120F16D8DFE818F0CF0024
:104B08001300DE0009011500150015001500150039
:104B180015001500150015001500150015001500E5
:104B2800E800E300D1F80CC0FF2E99BF82469146F9
:104B3800DDF804A0A2F12009DAF8008004FA09FBE4
:104B480028EA0B080CFA09F948EA0908CAF80080AB
:104B5800D1F8048018F0805F00F08B80D5F81880B9
:104B680003F0030A48F00108C5F81880D5F8188042
:104B78004FEA8A0A08F00108CDF80C80DDF80C80AD
:104B880023F0030808F1804808F58038D8F8089021
:104B980004FA0AFBB84229EA0B091ED0DFF89CB1D7
:104BA800584500F09980DFF898B158457ED0DFF875
:104BB80094B1584500F0AF80DFF88CB1584500F04B
:104BC800B180DFF888B158450CBF4FF0050B4FF0A6
:104BD800060B0BFA0AFB49EA0B09C8F80890D1F84A
:104BE8000480DFF86C9118F4801FD9F8088014BF8E
:104BF80048EA060828EA0608C9F80880D1F80480B7
:104C0800DFF84C9118F4001FD9F80C8014BF48EA5B
:104C1800060828EA0608C9F80C80D1F80480DFF8ED
:104C2800309118F4003FD9F8048014BF48EA060808
:104C380028EA0608C9F80480D1F80480DFF8109142
:104C480018F4803FD9F800800FD048EA0606C9F862
:104C58000060D1F80080013338FA03F602F104024B
:104C68007FF43BAF05B0BDE8F08F28EA0606C9F827
:104C78000060D1F8008029E7DFF8D8A0D0450DD032
:104C880031D8AAF5801AD04508D00AF5702AD0453F
:104C980004D0AAF5801AD0457FF446AFD1F808C0F1
:104CA800BCF1000F29D14FF0040C3DE74FF0020B87
:104CB8000BFA0AFB49EA0B098FE7D1F80CC00CF193
:104CC800080C31E7D1F80CC00CF10C0C2CE7D1F82A
:104CD8000CC00CF1040C27E74FF0010B0BFA0AFB90
:104CE80049EA0B0979E7DFF870A0D045D6D00AF574
:104CF800803AD0457FF418AFD0E7BCF1010F08BF68
:104D0800C0F810904FF0080C18BFC0F814900BE7CB
:104D18004FF0000C08E74FF0030B0BFA0AFB49EAC7
:104D28000B095AE74FF0040B0BFA0AFB49EA0B0987
:104D380053E700BF0010024000080140000C01408A
:104D4800001001400014014000180140001C0140FF
:104D5800000401400000221000003110836819424D
:104D680014BF01200020704702B90904016170478F
:104D78004FF6FF0C06490302CA6803F4E06302EA2F
:104D88000C02134343F0BF6343F40033CB60704716
:104D980000ED00E000B51B4BDB68C3F30223C3F151
:104DA800070EBEF1040F03F1040C28BF4FF0040EE8
:104DB800BCF1060F1CD9A3F1030C4FF0FF3303FA23
:104DC8000CF322EA03024FF0FF3303FA0EF321EA51
:104DD800030303FA0CF313431B010028DBB20ADBBD
:104DE80000F1604000F5614080F800335DF804FB95
:104DF80000229446E7E7044A00F00F0002441376C5
:104E08005DF804FB00ED00E0FCEC00E0002807DBA7
:104E1800012300F01F01034A40098B4042F820306B
:104E2800704700BF00E100E00138B0F1807F01D396
:104E3800012070474FF0E02300224FF0F00C0721CB
:104E480010B4044C586184F823C09A611961104663
:104E580010BC704700ED00E0124BDB6813F0100344
:104E680005D010231049CA6942F00202CA610D4AEE
:104E7800D268500706D50C4943F00403CA6942F0CA
:104E88000102CA61074AD169C90708D50648C1693C
:104E980041F00401C161D16921F00101D161014AE8
:104EA800D360704700200240E81C0020064B1869B8
:104EB80010F0800006D00549054A59605A60186903
:104EC800C0F3C010704700BF0020024023016745AF
:104ED800AB89EFCD034A0020136943F080031361C7
:104EE800704700BF0020024070B50446FFF764FA1F
:104EF8000546144EF368DB0705D5601C19D1114A25
:104F0800D368D907FCD40F4BDA68900644BF202237
:104F1800DA600C4BDA68D10607D4DA69D20704D410
:104F2800D86810F0040000D170BDFFF795FF01208C
:104F380070BD24B1FFF740FA401BA042DAD9032024
:104F480070BD00BF002002402DE9F84F284E96F8AA
:104F580018C0BCF1010F48D01C46012305464CF28D
:104F680050308A4617463376FFF7BEFFC8BB012D7F
:104F780003D0022D14BF042502254FF00009DFF8E5
:104F880074B0C8460AEB450501E0AA4529D0C9F125
:104F98002003C6F81C80A9F1200227FA09FC04FAAC
:104FA80003F34CEA030C24FA02F2DBF810304CEA63
:104FB800020C43F001031FFA8CFCCBF810304CF2C2
:104FC8005030AAF800C0FFF78FFFDBF810300AF165
:104FD800020A23F0010309F11009CBF81030002868
:104FE800D3D000233376BDE8F88F0220BDE8F88FD0
:104FF800E81C0020002002402DE9F8432D4E337EA6
:10500800012B54D00123337603688146022B31D01B
:105018004CF250308846FFF767FF074678BB4FF0E1
:10502800FF33C8F80030D9E9025305EBC3239D428A
:1050380025D2214C07E005F50065D9E9023203EBDA
:10504800C223AB421CD9F76123694CF2503043F0BC
:10505800020323616561236943F040032361FFF77D
:1050680043FF236923F0020323610028E3D0C8F833
:10507800005005E04CF25030FFF736FF20B1012018
:1050880000233376BDE8F8830B4CF06123694CF2BA
:10509800503043F004032361236943F04003236144
:1050A800FFF722FF236923F004032361E8E70220C6
:1050B800BDE8F883E81C00200020024088B110B544
:1050C8000379044603F0FF023BB1002302210122C9
:1050D800217123612271184610BD4271FCF7C6FB8D
:1050E800F3E70120704700BF80B342790346012AE5
:1050F8002ED010B40122022400685A711C71046871
:1051080001F0100C02FA0CF22243026081B919680E
:105118000A6802F03C023C2A03D14A6842F00102C4
:105128004A60002201215A711971104610BC70475B
:105138003C22186802FA0CF2016801F470119142DD
:10514800EFD1426842F002024260EAE7012070476C
:105158000220704710B4002483B0019488B100681D
:10516800019049B1019914310A4401920020019A31
:10517800136003B010BC7047019908310A440192CA
:10518800F4E7012003B010BC704700BF50B349B327
:1051980003464079012827D070B502204FF0010E50
:1051A80040F6FE754FF0C00C002483F805E0187136
:1051B8001E68D1E9000102F01002014395400CFA83
:1051C80002FC01FA02F23168204621EA05010A438D
:1051D800326019680A6822EA0C020A6083F804E05F
:1051E8005C7170BD0120704702207047036A026A33
:1051F80070B422F001020262446882690E68124D9E
:1052080022F0730232438E6823F00203A84243EA75
:1052180006030AD005F50065A84206D044608261FD
:105228004A6870BC426303627047CD6823F0080384
:105238002B4324F44074D1E9056546EA050C23F0B4
:1052480004034CEA0404E9E7002C0140036A026AFB
:1052580070B422F4807202624468C2690E68134D09
:1052680022F0730232438E6823F40073A84243EAA3
:1052780006230AD005F50065A84206D04460C2613D
:105288004A6870BCC26303627047CD6823F4006348
:1052980043EA052324F44054D1E9056546EA050CA0
:1052A80023F4806344EA0C14E8E700BF002C0140B3
:1052B800036A026A30B422F4805202624468C26906
:1052C800D1F800C00E4D22F4E64242EA0C22D1F891
:1052D80008C023F40053A84243EA0C330AD005F56A
:1052E8000065A84206D04460C2614A6830BC0264C6
:1052F800036270474D6924F4804444EA8514F2E758
:10530800002C014030B402684C68936823F07003A5
:1053180023430C6823F00703234393604B68502B07
:1053280023D012D9602B33D0702B1BD1D1E9024383
:10533800006809698268234322F47F4243EA012313
:1053480013438360002030BC7047402B34D009D809
:10535800202BF7D044D833F0100314BF01200020CD
:1053680030BC7047012030BC704703680D691C6A67
:105378001A6A886822F001021A629A6924F00A01FE
:1053880022F0F00242EA051201439A611962D9E754
:1053980003688C681A6A186A0D6920F01000186290
:1053A800996922F0A00221F4704141EA053142EAEC
:1053B800041299611A62C5E70B68052BD2D00368FD
:1053C8001C6A1A6A22F001021A6202680969936962
:1053D80023F0F00343EA0113936103681C62B1E709
:1053E800B3F1300018BF0120BAE700BF002934D15B
:1053F80090F83E30012B38D1022380F83E3001234B
:1054080030B4026801F01F01146A8B4024EA0304D7
:105418001462116A264D0B4313620368AB4226D00F
:10542800244A934223D0B3F1804F0AD0224A9342B0
:1054380007D002F58062934203D002F5806293425E
:1054480004D19A6802F00702062A03D01A6842F0CB
:1054580001021A60002030BC7047042917D00829BF
:105468001DD090F84130012B0DD0012070475A6CA7
:105478000F4942F400425A6403688B42E1D00D4A56
:105488009342DED0CFE7022380F84130B7E790F8A7
:105498003F30012BE9D1022380F83F30AFE790F885
:1054A8004030012BE1D1022380F84030A7E700BF4C
:1054B800002C01400034014000040040704700BF48
:1054C800FFF794BF90F83C20012A75D003460222CA
:1054D800012030B41C6883F83C0083F83D20A268A2
:1054E80022F47F4222F07702A2600A68602A7FD005
:1054F80012D8402A62D031D8202A04D000F29380F2
:1055080032F0100122D11868816821F070010A4335
:1055180042F00702826018E0B2F5805F15D0B2F55C
:10552800005F37D0702A11D1D1E901521C682A4393
:10553800A068CD6820F47F4142EA05220A43A260B0
:1055480019688A6842F077028A60002001210022E7
:1055580083F83D1083F83C2030BC7047502AF5D1C1
:105568001A684868CC68116A21F00A010843116A70
:1055780021F001011162916921F0F00141EA041161
:105588009161106219688A6822F0700242F057022D
:105598008A60DAE71C68D1E90152A0682A43CD681D
:1055A80020F47F4142EA05220A43A26019688A680A
:1055B80042F480428A60C8E7022070471A68486847
:1055C800CC68116A21F00A010843116A21F001012F
:1055D8001162916921F0F00141EA041191611062B0
:1055E80019688A6822F0700242F047028A60ACE7C4
:1055F8001A684868CC68116A21F0A00141EA0011D4
:10560800106A20F010001062906920F4704040EA9F
:1056180004309061116219688A6822F0700242F0C1
:1056280067028A6091E7302A3FF46DAF8EE700BFCA
:1056380038B590F83C30012B1FD00125022380F8A3
:105648003C5080F83D300446FFF75CFE70B9226894
:10565800D36823F04003D3602268D36823F48043DF
:10566800D36084F83D5084F83C0038BD002384F8AA
:105678003D5084F83C30284638BD022038BD00BF74
:10568800244A10B49042036814D002F50062904294
:1056980010D0B0F1804F2BD0A2F59832904227D08D
:1056A80002F58062904223D002F5806290421FD0BA
:1056B8004A6926E04C6823F07003CA68234323F440
:1056C800407313434A6923F08003134303608B68D4
:1056D800C3620B6883620B69036301234361036937
:1056E800DB0703D5036923F00103036110BC70478E
:1056F8004A6823F070031343CC6823F440734A6963
:10570800234323F08003134303608B68C3620B6851
:105718008362E2E7002C014050B310B590F83D30A9
:10572800044603F0FF02F3B10223214684F83D301A
:1057380051F8040BFFF7A4FF012384F8463084F8DE
:105748003E3084F83F3084F8403084F8413084F8A3
:10575800423084F8433084F8443084F8453084F883
:105768003D30002010BD80F83C20FCF7B1F8DBE7A5
:105778000120704750B310B590F83D30044603F04F
:10578800FF02F3B10223214684F83D3051F8040B9F
:10579800FFF776FF012384F8463084F83E3084F81A
:1057A8003F3084F8403084F8413084F8423084F83F
:1057B800433084F8443084F8453084F83D30002084
:1057C80010BD80F83C20FFF779FEDBE70120704729
:1057D800036A026A30B422F01002026244688269E5
:1057E800D1F800C0134D22F4E64242EA0C22D1F867
:1057F80008C023F02003A84243EA0C130AD005F599
:105808000065A84206D0446082614A6830BC826361
:1058180003627047CD6823F0800343EA051324F43C
:105828004064D1E905C54CEA050C23F0400344EA7D
:105838008C04E8E7002C014090F83C30012B66D03E
:10584800012310B5044680F83C300C2A08D8DFE85C
:1058580002F024070707370707074B0707070C005D
:10586800002384F83C30012010BD0068FFF720FDBC
:105878002268D36943F40063D3612268D36923F4AF
:105888008063D36122680969D36943EA0123D3613C
:10589800002384F83C30002010BD0068FFF7A6FC08
:1058A8002268936943F0080393612268936923F09F
:1058B800040393612268096993690B439361E7E7DD
:1058C8000068FFF785FF2268936943F400639361DA
:1058D8002268936923F48063936122680969936954
:1058E80043EA01239361D3E70068FFF7AFFC22681E
:1058F800D36943F00803D3612268D36923F0040312
:10590800D36122680969D3690B43D361C0E70220D8
:10591800704700BF90F83C20012A33D0034602228A
:10592800012030B41C6883F83C0083F83D2062688D
:10593800086822F070020243A0686260124D1A687B
:10594800AA4211D0114CA2420ED0B2F1804F0BD016
:10595800A4F59834A24207D004F58064A24203D08B
:1059680004F58064A24204D1496820F0800008430D
:1059780090600022012183F83C2083F83D101046F6
:1059880030BC704702207047002C014000340140B1
:1059980090F83C30012B26D0012300B584464FF007
:1059A800000E80F83C30CB680268886823F44073A6
:1059B8000343486823F480630343086823F40063BF
:1059C8000343086923F480530343486923F40053CD
:1059D800C969034323F480430B4353648CF83CE0C8
:1059E80070465DF804FB0220704700BF38B50446D6
:1059F8000268C06813691E4923F4405303431361C6
:105A080020682569A368C2682B43656922F4B052EF
:105A180022F00C022B431343C3602268A069536928
:105A280023F440730343536123688B421CD0FEF771
:105A380097FF0346626803EB8303920003EB83033B
:105A4800B3FBF2F34FF0640C0A492068A1FB034250
:105A580052090CFB12331B013233A1FB0313120151
:105A680002EB5312826038BDFEF78AFF0346E1E776
:105A7800003801401F85EB5178B310B590F84130DC
:105A8800044603F0FF021BB32423226884F8413044
:105A9800D368204623F40053D360FFF7A7FF002301
:105AA80020212068026922F490420261206842693C
:105AB80022F02A0242612068C26842F40052C260A1
:105AC800636484F8411084F842106363184610BD7B
